:020000040800F2
:10000000180E00202980000875790008777900080B
:1000100000000000000000000000000000000000E0
:100020000000000000000000000000007B790008D4
:1000300000000000000000007D7900087F790008C2
:10004000DB590008F3720008877400087376000813
:10005000677F00084D8000084F80000887790008FE
:10006000518000089D7900085380000855800008E1
:100070009379000857800008598000085B800008C9
:100080005D8000085F8000086180000863800008D0
:100090006580000867800008698000086B800008A0
:1000A0006D8000086F80000871800008B379000837
:1000B0007380000875800008A979000800B5BFF3B7
:1000C0004F8F684868490860BFF34F8FFEE770B5EF
:1000D000020003CA083A800B05072D0F0220454392
:1000E00003CA083AC0084E073043C908C006C00E0C
:1000F0002D186D1C00200300082B08DA0820584337
:100100001018083003C8080401D05B1CF4E7002075
:100110000400092C10DA08206043101848300078D9
:10012000000606D0082060431018903000780006C2
:1001300000D101E0641CECE7012B22DB012C20DB69
:1001400003CA083A800C8E033043890C8006800E67
:10015000854216D103CA083AC0084D072843C9088A
:10016000C006C00E83420CD103CA083A800B8A0431
:100170001043890B0007000F401C844201D101206D
:1001800000E00020C0B270BDF1B500980B00140073
:10019000A40800263500A54206DA066804276F4346
:1001A000DE516D1C001DF6E7F1BDF7B505000E0030
:1001B00000200190009602980700BF0802F08BFC17
:1001C00001A92A4802F000FD002803D0284802F0C7
:1001D0007BFD1AE0274802F077FD00200400BC42B6
:1001E00013DA00980421614342580023042060433D
:1001F0002918022002F022FC002804D021001E4809
:1002000002F062FD01E0641CE9E702F073FCF7BD57
:1002100070B5E0256D000024184E22002900300042
:1002200002F064FDE02215491548FFF7ADFF1548BF
:10023000006880B21449884204D11048FFF747FF94
:1002400000280BD1114802F03FFDE024104D0B4E69
:1002500022002900300002F073FD02E0C34802F0E2
:1002600033FD70BD0400FA050CED00E094010020A0
:10027000987F0008AC7F0008AC7B0008A801002034
:1002800000F803088002002034120000EC7A000815
:100290000000002030B5020003CA083AC0084C072D
:1002A0002043C908C406E40E0020DC215050002081
:1002B0000300A3420CDADC2015580820584310181C
:1002C000083003C888B22843DC2150505B1CF0E79B
:1002D000DC20105C0007000F002801D000201BE08C
:1002E000DC20105800090007000F002801D0012071
:1002F00012E0DC201058000A0007000F002801D08F
:10030000022009E0DC201058000B0007000F002835
:1003100001D0032000E00420D821515889B2000404
:100320000843D821505030BDFEB50400BC4D20001C
:10033000001D0090002069460872009800680009BE
:100340000007000F04280AD108262000143001906D
:10035000B44F32000199380002F0F2FC05E1009838
:100360000068000B8006800EB1490978C0B288424F
:1003700000D0E9E00098006800090007000F00289D
:1003800005D0022841D022D303286ED0D3E008261E
:100390002700143732003900280002F0D1FC03CDC9
:1003A000083D000A0A061043090A8006800E32281A
:1003B0000CDA03CD083D9CA20CCA02400B40C820B9
:1003C000800100211043194303C5083DB6E00098A1
:1003D0000068000A0007000F082803DB01206946B7
:1003E0000872ABE0082620001430019000980068E5
:1003F000000A0007000F082148432F180837320071
:100400000199380002F09CFC98E000980068000A0E
:100410000007000F092803DB0120694608728DE000
:10042000082620001430019000980068000A000798
:10043000000F082148432F1848373200019938002F
:1004400002F07EFC00980068000A0007000F0128F7
:100450000AD108262000143001902F0048373200BE
:100460000199380002F06CFC68E000980068000A0E
:100470000007000F092803DB0120694608725DE0D0
:10048000082620001430019000980068000A000738
:10049000000F082148432F18903732000199380087
:1004A00002F04EFC00980068000B8206920E03CD0D
:1004B000083D800C8B031843890C8006800E824215
:1004C00038D100980068000A0007000F002831D1D9
:1004D000D8202858000C00048C490143D82029500A
:1004E0002800FFF7D7FEE0228949280002F056FCD9
:1004F000002819D02800FFF7EAFD002814D0E022D8
:1005000029008448FFF751FE84480068000C00046D
:100510008149014381480160D82028580100090C15
:100520007F4802F0D1FB02E07E4802F0CDFB0120C3
:100530006946087202E00120694608723C4800786A
:10054000401C3B49087002E0012069460872684679
:10055000007A012809D1002035490870E0260027DB
:100560003A003100280002F0C1FBF7BD187E0008F8
:10057000F1B50D006846037803CA083A1B1A03CA8E
:10058000083A80B2000A1B1A03CA083A000C1B1A68
:10059000DBB21078C0B21C1803CA083A000E0E0273
:1005A0003043090EC0B2241A0226EDB2DBB29D42DE
:1005B0000BD2EDB2A54206DB03CA083A5E480142FF
:1005C00001D0072629E0012627E0EDB2DBB29D42EB
:1005D00009D3EDB2DBB21078C0B21818854202DA46
:1005E0000520060019E0EDB2DBB21078C0B2181891
:1005F000854212DBEDB2DBB21078C0B21818844627
:1006000003CA083A000A0F063843090AC1B2604615
:100610004018854201DA042006003000C0B2F2BD65
:1006200088020020D0050020FFC0FFFFFFFFFFFF72
:100630000F060020F7B5009F03200600102E63DA96
:100640000298F040C0075DD5032E16D103CF083FB6
:1006500035A430CC04400D406846027900235B028B
:10066000D00D03435202E020000100211040194048
:100670002043294303C7083F44E0072E16D103CF88
:10068000083F2BA430CC04400D406846027900237B
:100690005B05D00A03435205E0200004002110400E
:1006A00019402043294303C7083F2BE00B2E13D1E9
:1006B00003CF083FB8A430CC04400D40684602790F
:1006C00000235300002200200E2110401940204337
:1006D000294303C7083F15E00F2E13D103CF083F6E
:1006E000AFA20CCA02400B4068460479002565039E
:1006F00000240020E0210902204029401043194332
:1007000003C7083F361D99E7F7BD0000341200000B
:10071000A801002000F80308452300008002002003
:100720008C7C0008387D0008FFF1FFFFFFFFFFFF12
:10073000FFFF1FFFFFFFFFFF88880000F7B5009A4B
:1007400000200300102B00DB24E10298D840C007F2
:1007500000D41DE1002B11D103CA083A92A430CC79
:1007600004400D40684606790027072000213040EC
:1007700039402043294303C2083A09E1012B15D12E
:1007800003CA083AB7A430CC04400D406846067945
:100790000027FF00700F0743F6003820002130408B
:1007A00039402043294303C2083AF1E0022B16D115
:1007B00003CA083AADA430CC04400D40684606791F
:1007C0000027BF01B00E0743B601E0204000002122
:1007D000304039402043294303C2083AD8E0042B73
:1007E00016D103CA083AB7A430CC04400D4068467D
:1007F000067900273F03300D07433603E020C00190
:100800000021304039402043294303C2083ABFE069
:10081000052B16D103CA083AACA430CC04400D40D5
:10082000684606790027FF03700C0743F603E020B3
:1008300080020021304039402043294303C2083A56
:10084000A6E0062B16D103CA083AA2A430CC044075
:100850000D40684606790027BF04B00B0743B60475
:10086000E02040030021304039402043294303C2A7
:10087000083A8DE0082B16D103CA083A97A430CC69
:1008800004400D406846067900273F06300A0743BA
:100890003606E020C004002130403940204329437F
:1008A00003C2083A74E0092B16D103CA083A8DA492
:1008B00030CC04400D40684606790027FF067009D9
:1008C0000743F606E02080050021304039402043F0
:1008D000294303C2083A5BE00A2B16D103CA083A3F
:1008E000B5A430CC04400D40684606790027BF0708
:1008F000B0080743B607C020000601213040394048
:100900002043294303C2083A42E00C2B13D103CA07
:10091000083AABA430CC04400D4068460679002765
:100920003701002600207021304039402043294300
:1009300003C2083A2CE00D2B14D103CA083AA2A432
:1009400030CC04400D40684606790027F7010026A8
:100950000020E0218900304039402043294303C270
:10096000083A15E00E2B13D103CA083A9DA430CCE7
:1009700004400D40684606790027B7020026002093
:10098000E0214901304039402043294303C2083A5D
:100990005B1CD7E6F7BD0000FFFFFFFFF1FFFFFF85
:1009A000FFFFFFFFFF1FFFFFF8FFFFFFFFFFFFFF3E
:1009B00070B504008648007886490978884250D18D
:1009C000FF20801C8549096B086000208349096B62
:1009D000486000208149096B886000207F49096BCD
:1009E000C86007207D49096B08617B4800787B4916
:1009F000096B087506257948066B15362A00210013
:100A0000300002F09DF90021744801F023FA2078AB
:100A10004007400F7249087003CC083CC0084A07E1
:100A20001043C9084007400F6D49487003CC083C8B
:100A300080098A06104389094007400F6849887079
:100A400003CC083C400ACA051043490A4007400F3E
:100A50006349C87001F0BAFA01F02AFBC64802F0F7
:100A600041FA70BDC7FFFFFFFFFFFFFF3FFEFFFF23
:100A7000FFFFFFFF10B50400C0480078C0490968B7
:100A8000090C80B289B288421BD1882040005349AA
:100A9000096B086000205149096B486000204F49EC
:100AA000096B886000204D49096BC86001204B49E3
:100AB000096B08614948006B04750021474801F043
:100AC000C9F910BDFF8FFFFFFFFFFFFFFF7FFCFF96
:100AD000FFFFFFFFFFFFE3FFFFFFFFFFFFFFFFF849
:100AE000FFFFFFFFFFFFFFC7FFFFFFFF18B502007B
:100AF000C24803C8000A0B061843090A8006800E84
:100B00001178884201DA022000E0002069466B4635
:100B10001B88B74C1C404007400F20430880B74853
:100B200003C8000A0B061843090A8006800E517894
:100B3000884201DA022000E0002069460988AD4BB6
:100B40000B40C00038210140194368460180AB4882
:100B500003C8000A0B061843090A8006800E917824
:100B6000884201DA022000E0002069460988A24B91
:100B70000B408001E0214900014019436846018093
:100B80009E4803C8000A0B061843090A8006800E17
:100B9000D178884201DA022000E000206946098805
:100BA000A54B0B404002E021090101401943684672
:100BB00001806846008812BDFFFFFF3FFEFFFFFF78
:100BC000FFFFFFFF8FFFFFFFFFFFFFFF7FFCFFFF28
:100BD0000B0600200C060020A4010020C404002005
:100BE000E8050020FFFFFFFFFFE3FFFFFBB5160056
:100BF000089F68460078002820D103CE083E80A2D6
:100C00000CCA02400B406846818885480840C117DD
:100C10001043194303C6083E03CF083F78A430CCE5
:100C200004400D40684602890023774800211040A7
:100C300019402043294303C7083F82E068460078F3
:100C4000012828D103CE083E70A20CCA02400B40F6
:100C50006846818872480840C1170903040D214382
:100C600000031043194303C6083E03CF083F67A49F
:100C700030CC04400D406846028900231B03100D50
:100C800003431203634800211040194020432943C5
:100C900003C7083F55E068460078022829D103CEF3
:100CA000083E5DA20CCA02400B40684681885C4841
:100CB0000840C1170906040A2143000610431943DE
:100CC00003C6083E03CF083F53A430CC04400D4078
:100CD0006846028900231B06100A03431206FF2000
:100CE00000060F21104019402043294303C7083F45
:100CF00027E068460078032823D103CE083E49A2A6
:100D00000CCA02400B406846818845480840C1171C
:100D1000010100201043194303C6083E03CF083FDA
:100D200040A20CCA02400B406846048900252501F8
:100D3000002400204149204029401043194303C7A3
:100D4000083FF7BDF8B50400207947077F0F6068BA
:100D5000C0080605360D20001430FFF7C7FE050059
:100D6000324800902B009BB2354A310089B2781E80
:100D7000C0B2FFF73BFFF1BD9C0500200A06002032
:100D80008002002038B5002468460021016000255B
:100D9000274802F0ADF90121254802F0E3F901F0FE
:100DA000D5FB00200400E4B2042C1CDA2148E4B294
:100DB00002216143405A2349E4B214226243891854
:100DC0000969401A05002DB2FF2D01DDFF20050045
:100DD0002DB2002D01D50020050028006946E4B29F
:100DE0000855641CDFE76846FFF780FE32BD00004F
:100DF000F8FF0000C7FF00003FFE0000A801002030
:100E000000F0FFFFFFFFFFFFFF0F0000FF0F00FFDD
:100E1000FFFFFFFF00F0FF00FFFFFF00F0FFFFFFFD
:100E2000DB060000FFFFFFFF0F00FFFFC8050020EB
:100E300078040020B0050020FFF10000F0FF000062
:100E4000C0050020D8030020F0B591B00400B148DF
:100E500003C80EAA03C2083AAF4803C80CAA03C2CB
:100E6000083A00200290002500F08EFE6946C880F6
:100E7000FFF788FF6946888008200A9000200990C3
:100E8000A44E099A0A99300001F030FF009608201C
:100E9000089000200390A04E039A0899300001F0BA
:100EA00025FF00960CA80090684683880EAA684625
:100EB000C1889A480078FFF799FE03CC083C984A0D
:100EC0000240D31706A803C896A6C0CE06400F401E
:100ED00096480021104019403043394306AA03C206
:100EE000083A03CC083C000B8D4A0240D31706A8F1
:100EF00003C88FA6C0CE06400F401B03100D03434E
:100F000012038D480021104019403043394306AA8E
:100F100003C2083A03CC083C000E0A021043090E33
:100F20007F4A0240D31706A803C884A6C0CE064055
:100F30000F401B06100A03431206FF2000060F2174
:100F4000104019403043394306AA03C2083A03CC83
:100F5000083C08090021724A0240D31706A803C8BA
:100F600079A6C0CE06400F40130100220020784928
:100F7000104019403043394306AA03C2083A03CC53
:100F8000083C704A0240D31704A803C865A6C0CE27
:100F900006400F4065480021104019403043394356
:100FA00004AA03C2083A03CC083C000B654A02407D
:100FB000D31704A803C85EA6C0CE06400F401B038B
:100FC000100D034312035C480021104019403043C8
:100FD000394304AA03C2083A03CC083C000E0A02B3
:100FE0001043090E574A0240D31704A803C853A65A
:100FF000C0CE06400F401B06100A03431206FF2016
:1010000000060F21104019403043394304AA03C29F
:10101000083A03CC083C080900214A4A0240D31789
:1010200004A803C848A6C0CE06400F401301002202
:1010300000204749104019403043394304AA03C2F5
:10104000083A06220EA906A801F0A8FE0290062280
:101050000CA904A801F0A2FE0500A34803C80622BB
:10106000002302400B40002B05D1062A03D1029831
:101070002843002818D09C4803C8062200230240B9
:101080000B40002B04D1022A02D1029800280BD079
:10109000954803C80622002302400B40002B07D1CD
:1010A000042A05D1002D03D100209049087004E0E6
:1010B0008E480078401C8D4908708C4800780C28B8
:1010C00025DB894803C80222002302400B40002B85
:1010D00001D1002A06D00298002803D00320FFF790
:1010E000C9FC0EE0804803C80422002302400B40E4
:1010F000002B01D1002A04D0002D02D00C20FFF7D4
:10110000B9FC0120C749087000207849087011B067
:10111000F0BD0000C0050020C80500200A06002020
:10112000DB06000000F0FFFFFFFFFFFFFF0F0000E6
:10113000FF0F00FFFFFFFFFF00F0FF00FFFFFF00BA
:10114000F0FFFFFF92040000FFFFFFFF0F00FFFF13
:10115000F0FF0000F1B588B004200190082006904F
:101160000020059002A80490059A0699049801F0C1
:10117000BDFD04980790AC480268022102A8FFF761
:10118000DDFAA9480268022102A8FFF753FA0020FD
:1011900007000198874200DBA4E001200600032E2F
:1011A00077DA012E03D108980078009002E00898C1
:1011B0004078009068460078C0B20009C0B20028AC
:1011C00067D0684600780007000F07280BD1012080
:1011D00005000198022102F09FFA874201DA0024FB
:1011E00035E0012433E0684600780007000F052849
:1011F0000AD10198022102F08FFA874201DA002415
:1012000000E00124250022E0684600780007000F76
:1012100006280BD10198022102F07EFA874201DAFA
:10122000002500E004250020040010E06846007856
:101230000007000F042804D1042005000220040048
:1012400005E0684600780007000F05002C002648DE
:1012500069460978C9B20909C9B208225143401840
:1012600003C88AB22900C9B202A8FFF767FA1E486C
:1012700069460978C9B20909C9B208225143401820
:1012800003C88AB22100C9B202A8FFF7D3F9761CBD
:1012900085E702A8FFF78CFBFA2002F0C1FA634849
:1012A00001F020FE6248007862490978884219D12D
:1012B0005C48007800280CD10B4803C806220023A4
:1012C00002400B40002B01D1002A02D002A8FFF7F8
:1012D000BBFDF80704D420219020C00502F070FC6B
:1012E0007F1C56E709B0F0BDA801002010060020C1
:1012F000F1B588B00F00504808A909780822514379
:101300004018483004904C4808A9097808225143F5
:1013100040189030059000206946087180208000B8
:10132000069000200090009A0699380001F0DEFC3B
:101330000020039001200600032E63DA0020050040
:1013400000200400082C5BDA012E04D10498005D13
:101350000007000F03E00498005DC0B20009694671
:101360006A46127A1207120F00011043087268468B
:10137000007AC0B20009C0B2002841D06946059881
:101380006A46127AD2B21209D2B28018401E007890
:10139000487168460079EDB2694649796918884212
:1013A00029DA6846017AF020084000902248694610
:1013B000097AC9B20909C9B20822514342186846DC
:1013C0000079411BC9B268464079FFF7D1F801079F
:1013D000090F009801436846017201200390012E15
:1013E00003D102A80178397004E03800401C02A93A
:1013F0000A78027004E0684640792D18641CA1E761
:10140000761C99E70398002802D16846007906E027
:10141000684669460979491C0171BF1C88E709B013
:10142000F0BD00000E060020840200209C05002074
:101430000B0600200C060020A8010020F0B585B0A6
:1014400005000E00082001900020009002AF009AD5
:101450000199380001F04AFC02A803C8C7A20CCACF
:1014600002400B40012000211043194302AA03C28D
:10147000083A082202A9280001F090FC002801D1B6
:1014800000201BE103CD083D000A0A061043090AAB
:10149000C0B20400002C3FD402206043305C020044
:1014A000D2B21209D2B203CD083D000C0B0418438E
:1014B000090CC0B282422DD102206043305C020789
:1014C000120F03CD083D0807000F824222D10220EF
:1014D0006043301840780200D2B21209D2B203CD74
:1014E000083D000E0B021843090EC0B2824211D112
:1014F00002206043301840780207120F03CD083DE8
:10150000080900210007000F824203D1641C20005B
:10151000C0B2D3E0641EBDE7A04801F0E3FC03CDF8
:10152000083D0807000F012807D003CD083D080932
:1015300000210007000F012866D10020040003CD20
:10154000083D000A0A061043090AC0B2A0425BDB4C
:1015500002206043305C0200D2B21209D2B203CD45
:10156000083D000C0B041843090CC0B2824249D15B
:1015700002206043305C0207120F03CD083D0807CC
:10158000000F82420CD002206043305C0007000F45
:10159000072837D103CD083D0807000F012831D1B6
:1015A00002206043301840780200D2B21209D2B251
:1015B00003CD083D000E0B021843090EC0B2824253
:1015C00020D102206043301840780207120F03CD6B
:1015D000083D080900210007000F82420FD00220B9
:1015E0006043301840780007000F07280AD103CD68
:1015F000083D080900210007000F012802D1200042
:10160000C0B25BE0641C9AE75E4801F05DFB03CD6D
:10161000083D000A0A061043090AC0B202214843E5
:10162000301840780007000F019003CD083D000AF4
:101630000A061043090AC0B2022148433018407814
:10164000C0B20009C0B2009003CD083D000A0A06EE
:101650001043090AC0B202214843305C03071B0F44
:1016600003CD083D000A0A061043090AC0B2022150
:101670004843305C0200D2B21209D2B203CD083D19
:10168000010089B2090A89B23F4801F01DFB03CD70
:10169000083D080900210007000F009003CD083D18
:1016A00003001B0E03CD083D0A07120F03CD083DB2
:1016B000000CC1B2384801F007FBFF2005B0F0BDB7
:1016C000F1B584B0042608200390002002906F46F4
:1016D000029A0399380001F009FB2C4800782C4944
:1016E0000968090C80B289B2884244D10020050003
:1016F000B54240DA6846007C052809D13000022155
:1017000002F00AF8854201DA002412E0012410E018
:101710006846007C062809D13000022101F0FCFF58
:10172000854201DA002404E0042402E06846007CDB
:101730000400184802682100C9B26846FEF7FEFF9F
:10174000E4B2022C05D11348026802216846FEF774
:1017500071FF6846FFF72CF9FA2002F061F80F4894
:1017600001F0C0FBE80704D420219020C00502F05E
:1017700027FA6D1CBCE705B0F0BD000000FFFFFFBD
:10178000FFFFFFFF647A0008B87C00080A0600200B
:101790008002002084020020E47B00089C050020D9
:1017A00070B584B00600964D2868964988421AD0D4
:1017B0009549884203D09549884203D00DE1FEF750
:1017C0007DFC0EE1E02292499248FEF7EEFC924841
:1017D0000068000C0004914901438F480160904863
:1017E00001F072FAFDE08F4800780100C907C90FC7
:1017F0008D4801F069FA8B4803C84008CA071043B6
:1018000049080100C907C90F884801F05DFA8548F9
:1018100003C880088A07104389080100C907C90F57
:10182000834801F051FA7F4803C8C0084A071043B3
:10183000C908C106C90E7F4801F046FA794803C8B5
:10184000000A0A061043090A8106890E7A4801F047
:101850003BFA744803C8800B8A041043890B0107C4
:10186000090FC34801F030FA6E4803C8800C8A03A0
:101870001043890C8106890EBE4801F025FABE4846
:1018800001F030FB00200400664803C8C0084A0786
:101890001043C908C006C00E84422FDA61480821EF
:1018A00061434018083003C888B202905D4808219F
:1018B00061434018083003C8000E019059480821C0
:1018C00061434018083003C8000CC0B2009055486E
:1018D000082161434018083003C803009BB21B0A6B
:1018E0009BB25048082161434018007AC2B22100DF
:1018F000491CA24801F0E8F9641CC5E79E4801F0C4
:10190000F1FA00200400474803C8800B8A04104302
:10191000890B0007000FA04255DB424808216143B4
:101920004218906CD16C000E0A021043090EC0B22E
:1019300001903C48082161434218906CD16C000C26
:10194000C0B200903748082161434218906CD16CB6
:1019500003009BB21B0A9BB2324808216143401826
:1019600048300078C2B22100854801F0ADF92D4819
:10197000082161434018903003C8000E0A0210434A
:10198000090EC0B2019027480821614340189030E9
:1019900003C8000CC0B200902248082161434018DF
:1019A000903003C803009BB21B0A9BB21D4808215C
:1019B0006143401890300078C2B22100714801F0B4
:1019C00083F9641C9FE7B948026813480068010066
:1019D000090CB74801F078F903E02968B54801F02F
:1019E00073F9654801F07EFA04220549BD4802F00A
:1019F0008EF9002802D0BC4801F066F97FBD0000D6
:101A0000FC05002022221111FFFF11111111FFFF0F
:101A10000000002000F80308800200204523000099
:101A2000987E0008A8010020B47E00085C7D0008B4
:101A3000807D0008D07E0008387E000800B591B097
:101A4000012004900120059002200D90802040028A
:101A50000E9000201090802040030F9004A802F008
:101A600005FD002801D000F014F8072000900220A6
:101A7000019000200290002003900121684602F0AE
:101A8000E1FF002801D000F004F803F012F911B0D2
:101A900000BD7047E0B5AE48B94908600020B849BC
:101AA00048600020B64988600020B549C860012020
:101AB000B34908610420B24948610020B0498861F7
:101AC0000020AF4908620120AD494862FF20C230C2
:101AD000AB4988620020AA49C8620120A84908636E
:101AE0000020A7494863A64801F02EFA002801D03B
:101AF000FFF7CFFF002000908020400101900720D9
:101B0000029069469E4801F073FC002801D0FFF75F
:101B1000C0FF012000906946994801F069FC002847
:101B200001D0FFF7B6FF022000906946944801F00B
:101B30005FFC002801D0FFF7ACFF0320009069464E
:101B40008F4801F055FC002801D0FFF7A2FF8C4818
:101B500003F0C6F9002801D0FFF79BFF0422894952
:101B6000874801F06BFB002801D0FFF792FF07BD0B
:101B7000EC7E0008087F00089C050020147900080E
:101B80002C7B00081C7C000810B500240421AE4802
:101B900001F0FEFF002803D10120AC49087002E0EB
:101BA0000020AA4908708021C900A74801F0F0FF71
:101BB000002803D10120A549487002E00020A34974
:101BC000487080210901A04801F0E2FF002803D1FC
:101BD00001209E49887002E000209C498870802185
:101BE0004901994801F0D4FF002803D10120974909
:101BF000C87002E000209549C87080218901924890
:101C000001F0C6FF002803D101209149087002E0CD
:101C100000208F4908708021C9018B4801F0B8FF6E
:101C2000002803D101208A49487002E00020884939
:101C3000487080210902844801F0AAFF002803D1DE
:101C400001208349887002E000208149887040218A
:101C50009B4801F09DFF002803D101207C49C870FA
:101C600002E000207A49C8700020964908800020D0
:101C7000040064B2042C13DA92480088734964B2F9
:101C8000095D4900724A64B2125D0A43042111439E
:101C900003226243914001438A480180641CE8E7C3
:101CA000884800880005000D10BD00008402002057
:101CB000E47C0008E87F000880B50121304801F08D
:101CC00051FA30480088B74908802E484088B54905
:101CD00048802C488088B34988802A48C088B14908
:101CE000C88001BD68030020A47D000880B5764847
:101CF000AD49086096208001AB4948600020AA49A0
:101D000088600020A849C8600020A7490861002019
:101D1000A54988610C20A44948610020A249486275
:101D2000A14801F0CFFF002801D0FFF7B2FE9E4886
:101D300001F086FF002801D0FFF7ABFE04229B498B
:101D4000994801F0E4FF002801D0FFF7A2FE01BD91
:101D50000024014080B596489649086003209549C3
:101D6000486095489349886094489249C860914872
:101D700001F028F8002801D0FFF78BFE01BD00001C
:101D800078040020B005002010B58AB000248C48EB
:101D9000C44908608B48C34908638B48C1494863FC
:101DA0000020C04988610020BE49C8610020BD49AB
:101DB00008620020BB4948620020BA4988620020BE
:101DC000B849C8620020B74988600020B549C8609A
:101DD000C0200003B349086180204003B149486135
:101DE0000620B0494860AF4803F0D4F8002807D077
:101DF000641CE4B2FF2CF6D1AB4800F065FF20E094
:101E0000E4B22100A94800F05FFF00200590002007
:101E100006900120079000200090002001900020F3
:101E200002900020039000200490012008900E20D2
:101E3000099069469B4803F081F9002801D0FFF71B
:101E400028FE0AB010BD000000040048E405002090
:101E5000E0050020F8B505000F0000240026FFB2C1
:101E6000012F1CD10021280003F05AFB0600C0B24C
:101E7000002821D0641CF6B2330038202A5C3920B7
:101E8000295CB74800F020FFE4B20A2CEAD1012017
:101E9000B4490870B44800F017FF00200DE0FFB20D
:101EA000002F09D1B1480068401CB04908600A21E0
:101EB000280003F007FA00E00120F2BD0000000056
:101EC000000800480806002000380140F0B583B043
:101ED00000240025A64806781C20019000200090D0
:101EE0007048076B009A0199380000F0FFFEA14886
:101EF000007802280AD1F6B2022E02D10020060094
:101F000004E0F6B2032E01D101200600002065494D
:101F1000096B086001209649097810318840C04952
:101F20000988C9000143F6B23000401C08438021F3
:101F3000090201435B48006B416004205949096B69
:101F4000886000205749096BC86004205549096B17
:101F5000086100200400E4B2042C1EDAB148E4B2A7
:101F600002216143405AB049E4B214226243891805
:101F70000969401A05002DB2FF2D01DDFF20050083
:101F80002DB2002D01D50020050028004549096B20
:101F9000E4B209190875641CDDE700214148FFF728
:101FA00059FFF7BDB805002068030020FC0500209C
:101FB000003000409C050020E2040000FF0F0000FC
:101FC00000640040800500203C05002080B5C34827
:101FD00000780200D207D20F8021C14801F0E6FD4F
:101FE000BE48007802009207D20F1021BC4801F0D1
:101FF000DDFDBA48007802005207D20F8021C900E7
:10200000B74801F0D3FDB54840780200D207D20F9F
:1020100080214900B24801F0C9FDB0484078020073
:102020009207D20F2021AE4801F0C0FDAB484078A6
:1020300002005207D20F80210901A94801F0B6FD24
:10204000A64880780200D207D20F80218900A448D8
:1020500001F0ACFDA148807802009207D20F012167
:10206000D44801F0A3FD9D48807802005207D20FAA
:10207000802149019A4801F099FD9848C0780200F2
:10208000D207D20F802149009020C00501F08EFDBB
:102090009248C07802009207D20F0221C54801F091
:1020A00085FD01BDC4040020C07F0008C87D000874
:1020B000F8B51C250026CF48076B320029003800F0
:1020C00000F014FE2A4804782A48007802280AD131
:1020D000E4B2022C02D10020040004E0E4B2032C9C
:1020E00001D101200400E4B2B9482018C149096BAC
:1020F00008600020BF49096B48600020BD49096B9A
:1021000088600020BB49096BC8600520B949096B8C
:10211000086118480078B749096B08756F4800785E
:102120004007400FB349096B48756C484078400739
:10213000400FB049096B8875684880784007400FA8
:10214000AC49096BC8756548C0784007400FA9497C
:10215000096B08760021A748FFF77CFEF1BD00005F
:10216000A87A00080D060020D47F0008F0050020A2
:102170000A060020A401002038B504250020040030
:10218000AC424BDA2800022101F0C6FA844203DA9D
:1021900000205249087002E00420504908702800CD
:1021A000022101F0B9FA844203DA00204B49487059
:1021B00002E00420494948702800022101F0ACFAED
:1021C000844203DA00204549887002E00420434934
:1021D00088702800022101F09FFA844203DA00206F
:1021E0003E49C87002E004203C49C870B2480078FB
:1021F000B2490978884211D1FFF7E8FEFFF758FF8E
:10220000AD480078AD490978884207D1C54800F04B
:1022100069FEFA2001F004FB641CB1E731BD000047
:1022200008060020B0050020D8030020F1B581B0D9
:10223000002400260027BC4805780198406B007DEB
:10224000BA490870B948007802280AD1EDB2022DC7
:1022500002D10020050004E0EDB2032D01D10120E0
:102260000500EDB20C206843082101F055FA401C2E
:1022700004000836EDB20C206843082101F04CFA46
:10228000761A00970198406BE4B20019007D0700B0
:10229000EDB20C206843082101F03EFA38000841F5
:1022A000009F384307000198406BE4B20019407D5D
:1022B000B0403843070000200400E4B2042C0BDADD
:1022C000BFB203206043390001414807400F034972
:1022D000E4B20855641CF0E7F3BD0000E8050020F7
:1022E0000008004810B50400606B006907283CD165
:1022F000606B0068FF21891C884236D16E480078E7
:10230000401C6D490870874800F0ECFD2000FFF785
:102310008DFFFFF75BFEFFF7CBFE854800F0E8FE80
:10232000FFF7CAFCFFF730FC00F010F9FFF7CEFD15
:10233000804800680100491C7E4A1160022807D1CC
:1023400010219020C00501F03BFC00207949086075
:1023500079480068032827D30020774908602021A6
:102360009020C00501F02CFC1EE0606B0079000796
:10237000000F0F280AD1606B0069082806D1606B36
:10238000FDF7D2FF674800F0ADFD0DE0606B4068DF
:1023900001000904C90F002906D0606B00690428F8
:1023A00002D1606BFEF7CEFC01212000FFF752FD49
:1023B00010BD00000004004810B50400202190204A
:1023C000C00501F0FDFB574800F08CFD10BD00007A
:1023D0000103000010B504003920225CD2B2E16B89
:1023E000564800F071FC564800F06EFCFDF766FEA2
:1023F00010BD0000C404002010B50024082151487D
:1024000001F0C6FB04000220444310214D4801F0B6
:10241000BFFB201804002000C0B210BD10B586B06C
:1024200049480068802189020143474801604648C5
:1024300000688021890208400090009C01200290E1
:102440000320049000200390F8204000019001A98F
:102450009020C00501F0F6F9012240219020C0052E
:1024600001F0A4FB06B010BD10B586B03648006878
:102470008021C9020143344801603348006880214B
:10248000C90208400090009C0120029003200490A3
:10249000002003900320019001A96A4801F0D2F9BD
:1024A00000200290002003906748019001A9654830
:1024B00001F0C8F906B010BD0B0600200C06002084
:1024C00010B586B0204800688021090301431E48EA
:1024D00001601D4800688021090308400090009CAD
:1024E000012002900320049002200390574801909D
:1024F00001A9574801F0A6F900200290002003909E
:102500004020019001A9524801F09CF906B010BD8D
:1025100000B5504A12685206FBD50200D2B24E4BAB
:102520001A8000BD9C0500200A060020A40100209E
:1025300078040020EC050020F0050020CC7900088C
:10254000587E0008000400481410024070B50024B2
:102550000026002500200400E4B2042C70DAE4B266
:10256000002C05D110213A4801F012FB050016E0BD
:10257000E4B2012C05D12021354801F009FB05000A
:102580000DE0E4B2022C05D101212E4801F000FB40
:10259000050004E002212B4801F0FAFA0500EDB233
:1025A000012D4BD02D48E4B21421614340182C4931
:1025B000E4B2095D042251432A4AE4B20223634390
:1025C000D25A42502648E4B2005D401C2449E4B28D
:1025D00008552348E4B2005D042807D100202049B3
:1025E000E4B2085501202049E4B208551E48E4B27F
:1025F000005D012822D11948E4B2142161434058FA
:102600001649E4B2142262438918496840181349F4
:10261000E4B2142262438918896840180F49E4B271
:10262000142262438918C9684018060030008008E7
:102630000A49E4B21422624389180861641C8BE7DA
:1026400070BD0000000400481CFC0000B01F00002A
:10265000000800481C38014028380140D8030020F9
:10266000F4050020B0050020F8050020F0B5FFB00B
:1026700088B00024002069460872142069468872D8
:10268000062500206946487201F0A0F8FFF7D6F948
:10269000D448006880000BD5FA20800001F0C0F813
:1026A000D0480068802149040143CE48016003E01E
:1026B000FA20800001F0B4F8FFF7B0FEFFF7D4FE77
:1026C000FFF7FEFEFFF712FBFFF75EFBFFF7E2F9F5
:1026D000FFF740FBFDF79CFDFFF78EFED449087025
:1026E000D44800F0C8FB002801D0FFF7D2F901213F
:1026F000D148FFF7AFFBCB4800F0E6FAFFF77CFECE
:10270000CB490870C8480078012820D10020C6496C
:1027100008700121C848FFF79DFB012803D1002064
:102720006946087204E068466946097A491C0172E4
:102730006846007A022807D1002069460872AA4834
:1027400000F0C2FAFDF7BAFCA84800F0BDFAB7489D
:102750000078A7490978884200D022E1641C6846C5
:10276000807A002807D0FFF707FD68466946897A16
:10277000491E8172C2E7EDB2002D16D00220FEF78D
:102780009FFF6D1E032004001F20FEF773F9994878
:1027900003C89CA20CCA02400B4001200021104338
:1027A0001943944A03C2083AA8E7934800780128DD
:1027B00003D10620FEF784FFA0E7E4B2052C63DA1C
:1027C0009548006880B28D49884204D1E02293493F
:1027D0008B48FDF7D9FCE4B2032C02DB1F20FEF787
:1027E00049F9E4B2042C48D1824803C804AA03C2C0
:1027F000083A04A803C8C0B2FE2809D104A80CC82E
:10280000083880A003C81040194004AA03C2083A3F
:1028100004A803C8C0B2092820DA06A90A0004A83F
:1028200003C81100C0B2FEF763FD6946487206A9ED
:1028300004A8FEF703FE060004A803C874A20CCA8D
:1028400002400B403000C0B200210902060E3143A5
:1028500000021043194304AA03C2083A6846437AA7
:1028600004A803C8000A0A061043090AC2B204A851
:1028700003C8C1B2654800F027FAFA2000F0D0FF83
:102880006C4800F02FFBA6E0E4B2052C6ADBE4B252
:102890000D2C67DA61480078C0075CD56448007881
:1028A0005D490968090C80B289B2884253D104A8F5
:1028B00003C8C0B209284EDA6846427A04A803C8A1
:1028C000000A0B061843090AC0B2824243DB04A87F
:1028D00003C8000A0A061043090AC0B26946497AC9
:1028E000884209DB04A80CC8083849A003C8104076
:1028F000194004AA03C2083A04A803C844A20CCA97
:1029000002400B400092019302001600B6B2360A54
:10291000B6B200270022761C57413F02320E174301
:102920003602FF221202002332403B40009E019FEC
:1029300032433B4304AE0CC6083E06AA000A0B060F
:102940001843090AC0B2022148431018FEF702FCDE
:10295000042004003FE0FA2000F062FF354800F058
:10296000C1FA38E004A803C8C0B2019004A803C8A3
:10297000000A0A061043090AC0B2009026480068FF
:1029800003001B0C2A480278244800780100C9077C
:10299000C90F234800F098F9FFF7EEFB0C20040064
:1029A00019E02248007812490870E4B2032C02DBD7
:1029B0000120FEF75FF800206946887200200500BC
:1029C00000200D49087000200400FA2000F028FFC4
:1029D000184800F087FA40219020C00501F0F0F877
:1029E0008CE600BF24100240547C0008787E00086A
:1029F0000C060020D00500200E0600204523000014
:102A000000F8030800FFFFFFFFFFFFFF6C7B0008DB
:102A1000FF00FFFFFFFFFFFF80020020A801002052
:102A2000187A0008247F00080D0600200B060020FD
:102A30000A0600209C050020C4040020F1B50CB457
:102A40000F000125002400263548007E012801D111
:102A500002203FE00120324908762A4800F062F85F
:102A60000500EDB2002D30D10298012802D10120DD
:102A7000060007E00298022802D10220060001E0C9
:102A80000420060000200400E4B2F6B2B4421CD2D6
:102A9000684603C81022624302F090FF010089B229
:102AA000E4B202206043381800F02EF8154800F018
:102AB00039F8050031480068012188432F49086032
:102AC000EDB2002D01D1641CDEE700201449087628
:102AD0002800C0B2FEBD00B528480068000607D532
:102AE000364837490860374835490860002000E01B
:102AF000012000BD21480068802101431F4801607A
:102B00000020704750C300000022054BDA611B4AC9
:102B1000126801231343194A1360018070470000B3
:102B20006005002038B5040000F077FE050021485C
:102B30000068C0070CD50020C0438442F7D0002CA9
:102B400004D000F06AFE401B8442F0D2032013E060
:102B500018480068800602D52020164908601548EC
:102B60000068C00603D413480068400703D500F08E
:102B700007F8012000E0002032BD000010200240D4
:102B800000B50C480068C00605D50B48C069022195
:102B900001430948C16107480068400705D5064858
:102BA000C069012101430448C16114200149086042
:102BB00000BD00000C200240600500202301674595
:102BC00004200240AB89EFCDF8B504000F000125C9
:102BD00000262E48007E012801D1022044E0012079
:102BE0002A4908762068012811D12948FFF79AFF61
:102BF000002834D100F039F82548FFF793FF05008D
:102C000024480068042188432249086027E02048BE
:102C1000FFF788FF002822D10020C0433860606899
:102C200006006068A1688022120151434018864264
:102C300015D2300000F030F81548FFF773FF05009B
:102C4000144800680221884312490860EDB2002D43
:102C500001D03E6003E0802000013618E1E700204B
:102C60000A4908762800C0B2F2BD00200749C861B1
:102C700008480068042101430648016005480068CF
:102C800040210143034801607047000060050020B7
:102C900050C30000102002400021094AD1610749B9
:102CA000096802220A4305490A6006490860034987
:102CB000096840220A4301490A6070471020024017
:102CC00060050020142002400EB400B582B003A9B4
:102CD00000916B4602000121034878440A3002F05B
:102CE0007DFE029906B008478B5200001206130AB7
:102CF0001A43130C1A4300BF094205D0830705D0BD
:102D00000270401C491EF9D170470000130030B416
:102D100014001500103902D310393CC0FCD2490709
:102D200000D30CC000D504C0890002D30280801CEF
:102D3000002900D5027030BC704700000022E5E792
:102D4000124207D08B0706D00B78491C0370401C39
:102D5000521EF7D87047830706D00B78491C0370C2
:102D6000401C521EF9D1704770B4103A03D378C991
:102D7000103A78C0FBD2530701D318C918C001D547
:102D800008C908C0D20704D30B880380891C801CA3
:102D9000002A01D50B78037070BC704710B402E0B4
:102DA000401C491C521E002A09D00B7804789C4212
:102DB000F6D002D20020C04302E0012000E0002053
:102DC00010BC704738B504000025002C01D101204B
:102DD0004FE02068C068C00709D52068C068800738
:102DE00005D52068C068400701D5012041E0607C1E
:102DF000002804D100202074200000F03BF80220BD
:102E000060744C4821680860206840680721884346
:102E1000616801432068416020688068000B0003FE
:102E2000A168014320688160E0684349884204D179
:102E3000206800694049884218D000F0EEFC050087
:102E40002068C068002809D000F0E7FC401B3B491F
:102E50008842F5D30320607403200AE020680069EB
:102E6000000B0003E16801432068016101206074E8
:102E7000002032BD704738B504000025207C0128B1
:102E800001D102202DE00120207402206074E0684E
:102E90002949884202D12A482168086029482168C6
:102EA000086000F0BAFC05002068C068C00713D5B0
:102EB0002068C06880070FD52068C06840070BD520
:102EC00000F0ABFC401B1D498842EDD30320607429
:102ED00000202074032004E001206074002020748E
:102EE000002032BD38B504000025207C012801D126
:102EF00002201EE0012020740220607400F08DFC8E
:102F000005002068C06880070BD500F086FC401BD8
:102F10000A498842F5D303206074002020740320FE
:102F200007E00748216808600120607400202074D1
:102F3000002032BD55550000FF0F0000E9030000DE
:102F4000AAAA0000CCCC000070B504000025002621
:102F5000002C01D10120CAE0606C002807D10020BC
:102F6000A064002040216054200003F047F9606C09
:102F7000C00600D5B3E0EDB2002D00D0AFE0206870
:102F80008068400700D5AAE0606C744901400220C7
:102F900008436064206880688007800F012809D199
:102FA00020680068C00703D42068C068000401D509
:102FB000012000E0002000280FD12068C0681821FF
:102FC0008843A16801432068C160206800698000CF
:102FD000800861680143206801612068C068604919
:102FE00001402068C160606B012802D08020400150
:102FF00000E000202169022901D1042100E0002124
:10300000A2699303E269D2031A43236A5B03134361
:103010001843E26802431143206B400008433043E9
:103020000600606A012806D1206A002803D130001A
:10303000802676020643A06AFF21C231884204D06E
:103040003100A06AE66A06430E432068C068304338
:103050002168C860A06B80214905884214D0A06B0C
:10306000012811D0A06B02280ED0A06B03280BD032
:10307000A06B042808D0A06B052805D0A06B0628FB
:1030800002D0A06B07280ED1206840690721884331
:1030900021684861206840693821615C4907490F0F
:1030A0000143206841612068C06862490140B14223
:1030B00008D10020A064606C0221884301210143F3
:1030C000616412E0606C0221884310210143616455
:1030D000A06C01210143A1640120050005E0606CA2
:1030E000102101436164012005002800C0B270BDB9
:1030F00038B50400002520688068400728D44020A7
:10310000205C012801D1022026E0012040216054EA
:10311000E069012803D0200000F034FA0500EDB288
:10312000002D17D1606C44490140802040000843C5
:1031300060640020A0640020402160541C202168AD
:10314000086020688068042101432068816001E0F4
:10315000022005002800C0B232BD0000FFFEFFFFC4
:103160001902FEFFF8B505000C006869082802D1B5
:10317000082006000EE02868C068C00708D5686C03
:10318000202101436964002040216854012050E05F
:103190000C20060000F041FB070028680068304062
:1031A000002813D10020C0438442F6D0002C04D064
:1031B00000F033FBC01B8442EFD2686C0421014352
:1031C0006964002040216854032032E0686C80214B
:1031D0008900014369642868C068C0210901014071
:1031E00000291FD1286A00281CD128680068000720
:1031F00018D52868806840070CD4286840680C21DE
:10320000884329684860686C3649014001200843BA
:10321000686407E0686C202101436964A86C01219F
:103220000143A964A869002802D10C20296808601C
:103230000020F2BDE7FF3F83FEF1FFFFF8B5040079
:103240000F001600002520688068400744D4402005
:10325000205C012801D1022042E00120402160547D
:10326000E069012803D0200000F08CF90500EDB2E0
:10327000002D33D1606C5849014080204000084344
:1032800060640020A0640020402160545348E16B3A
:1032900088625348E16BC8625248E16B08631C20A6
:1032A000216808602068406810210143206841605F
:1032B0002068C068012101432068C16033003A00E2
:1032C00021684031E06B03F031FB20688068042105
:1032D00001432068816001E0022005002800C0B29F
:1032E000F2BD0000FFFEFFFF10B50400206800687B
:1032F000400703D520684068400707D4206800686D
:10330000000738D520684068000734D5606CC006D7
:1033100004D4606C80218900014361642068C06826
:10332000C0210901014000291FD1206A00281CD1B9
:1033300020680068000718D52068806840070CD412
:10334000206840680C21884321684860606C8C4983
:10335000014001200843606407E0606C20210143C4
:103360006164A06C01210143A164200000F03CF8DD
:103370000C20216808602068006800060ED52068CF
:10338000406800060AD5606C8021490201436164EF
:10339000200000F02BF88020216808602068006879
:1033A000C00617D520684068C00613D5606B012899
:1033B00003D02068C068C00709D5A06C0221014372
:1033C000A164102021680860200000F010F810208F
:1033D0002168086010BD0000FEF1FFFF3D360008C7
:1033E000C1360008CF3600087047704770477047F5
:1033F00078B504000D00002600200090A06B80210D
:103400004905884213D0A06B012810D0A06B022878
:103410000DD0A06B03280AD0A06B042807D0A06BA6
:10342000052804D0A06B062801D0A06B07284020F7
:10343000205C012801D10220A0E00120402160543D
:1034400020688068400700D58DE068687749884229
:1034500064D02068806A01212A6891400143206875
:103460008162A06B80214905884229D0A06B012888
:1034700026D0A06B022823D0A06B032820D0A06BFD
:1034800004281DD0A06B05281AD0A06B062817D0E1
:10349000A06B072814D0A868216849694907490F1B
:1034A00088420DD02068406907218843216848611F
:1034B00020684069297A4907490F01432068416122
:1034C0002868102805D02868112802D028681228FA
:1034D0004FD12868102802D18020000407E0286816
:1034E000112802D18020C00301E08020400450490F
:1034F000096808434E4908602868102839D14D48AA
:1035000000684D4900F00BF90A21484300900098EB
:1035100000282ED00098401E0090F8E72068806AAE
:1035200001212A6891408843216888622868102810
:1035300005D02868112802D02868122819D12868D7
:10354000102802D18020000407E02868112802D149
:103550008020C00301E08020400435490968814390
:103560003348016005E0606C202101436164012063
:1035700006000020402160543000C0B272BD00003F
:10358000FFFEFFFF38B504000025002000902068F2
:1035900080688007800F012809D120680068C00773
:1035A00003D42068C068000401D5012000E0002099
:1035B000002838D1206880683F490140002909D09F
:1035C000606C102101436164A06C01210143A1647E
:1035D000012029E020688068012101432068816082
:1035E00014480068144900F09AF8009000980028E8
:1035F00003D00098401E0090F8E700F00EF9050097
:1036000020680068C0070ED400F007F9401B0328AB
:10361000F6D3606C102101436164A06C0121014369
:10362000A164012000E0002032BD00000110000074
:1036300008270140A001002040420F0038B50400D7
:10364000656A686C5021014000292FD1686C802187
:103650008900014369642868C068C02109010140EC
:1036600000291FD1286A00281CD12868006800079B
:1036700018D52868806840070CD4286840680C2159
:10368000884329684860686C0C4901400120084360
:10369000686407E0686C202101436964A86C01211B
:1036A0000143A9642800FFF79FFE03E02000E96BB7
:1036B000096B884731BD000017000080FFFEFFFF47
:1036C00038B50400656A2800FFF78FFE31BD38B5B4
:1036D0000400656A686C402101436964A86C042198
:1036E0000143A9642800FFF782FE31BDF44600289B
:1036F00004D4494200F013F8404260474042002998
:1037000005D45FD000F00BF840424942604749427F
:1037100000F005F84942604703460B43E6D4002217
:10372000030A8B420BD203098B4219D243088B4206
:103730002ED2411A00D20146524110467047FF2254
:1037400009023FD012068B4205D3121209028B42A6
:1037500001D31212090203098B4219D300E0090AAE
:10376000C3098B4201D3CB01C01A524183098B425A
:1037700001D38B01C01A524143098B4201D34B0143
:10378000C01A524103098B4201D30B01C01A5241A6
:10379000C3088B4201D3CB00C01A524183088B422D
:1037A00001D38B00C01A524143088B4201D34B0016
:1037B000C01A5241884200D3401A5241CFD201462A
:1037C0001046704708B503F093FD08BD80B51B484F
:1037D00000681021014319480160002000F005F83D
:1037E00000F002F8002002BD704710B5040001F09F
:1037F000CEFAFA218900FFF792FF03F0FFFD0022C5
:1038000021000020C04303F0E1FD002010BD0C4862
:103810000068401C0A490860704709480068704702
:1038200011B581B00024FFF7F8FF0400FFF7F5FFA2
:10383000001B01998842F9D313BD0000002002400B
:1038400000060020F8B50022002300260C68D440B2
:10385000002C00D1ECE00C680125954025402B00A0
:10386000002B00D1E2E04C68022C02D04C68122CF4
:103870001DD11400E40804256C430419246A2600B1
:103880000F2415006D076D0F04277D43AC40A64340
:103890000C6915006D076D0F04277D43AC40344360
:1038A00026001400E40804256C4304192662046809
:1038B00026000324150002277D43AC40A6430C7963
:1038C000A407A40F150002277D43AC403443260013
:1038D00006604C68012C08D04C68022C05D04C685E
:1038E000112C02D04C68122C1CD1846826000324B1
:1038F000150002277D43AC40A643CC681500022783
:103900007D43AC4034432600866044682600012491
:103910009440A6434C682500ED06ED0F95403543D5
:103920002E004660C46826000324150002277D434C
:10393000AC40A6438C68150002277D43AC4034435D
:103940002600C6604C68E40070D5904C24680125C0
:1039500025438E4C25608D4C24682500ED07ED0F26
:103960000095009CA14DAC461700BF0804256F438D
:103970006546ED592E000F27BC461500AD07AD0F6B
:1039800004277D436746AF40BE439025ED05A8421E
:1039900001D1002414E0964CA04201D101240FE093
:1039A000944CA04201D102240AE0934CA04201D1E0
:1039B000032405E0914CA04201D1042400E0052439
:1039C0001500AD07AD0F04277D43AC4034432600FE
:1039D000864C1500AD0804277D436651884C246849
:1039E00026009E434C68E40300D51E43844C2660A9
:1039F000844C246826009E434C68A40300D51E43D3
:103A0000804C2660804C246826009E434C68E4026B
:103A100000D51E437C4C26607C4C246826009E43C7
:103A20004C68A40200D51E43784C2660521C0DE75A
:103A3000F1BDF8B50022002300240D00D540002D73
:103A400000D1A1E0012595400D402B00002B00D1B5
:103A500098E006680327BC46150002277D436746A9
:103A6000AF40BE4306601500ED08042675434519B6
:103A700000951500ED080426754345192F6A0F259A
:103A8000AC4615006E07760F04256E436546B540BB
:103A9000AF43009D2F6286680327BC4615000227AE
:103AA0007D436746AF40BE43866045680126964029
:103AB000B5434560C6680327BC46150002277D4311
:103AC0006746AF40BE43C660484D1600B60804279F
:103AD0007E43AD592C000F251600B607B60F0427FC
:103AE0007E43B54025402C009025ED05A84201D12C
:103AF000002514E03E4DA84201D101250FE03D4DC7
:103B0000A84201D102250AE03B4DA84201D103257C
:103B100005E03A4DA84201D1042500E00525160034
:103B2000B607B60F04277E43B540AC422AD10F2515
:103B30001600B607B60F04277E43B5402C002B4D68
:103B40001600B60804277E43AE59A643274FBC464D
:103B50001500AD0804277D4367467E51284D2D682A
:103B60009D43274E3560274D2D689D43254E35607A
:103B7000254D2D689D43244E3560244D2D689D4371
:103B8000224E3560521C58E7F1BD0000181002406B
:103B900000B50200136989B20B40002B02D001234B
:103BA000180001E000231800C0B200BD00B5D2B279
:103BB000002A02D089B2816101E089B2816200BD30
:103BC000426989B24A404261704710B5040010480A
:103BD0000068A4B22040002806D0A4B20C480460BB
:103BE000200080B200F016F810BD0000080001406F
:103BF0000004004800080048000C0048001000487D
:103C00000004014004040140080401400C04014088
:103C100014040140704730B4012100220368001DE4
:103C2000002B0BD00468001D0C4202D04D466D1EC7
:103C300064192260241D1B1FF0D0FAE730BC7047C6
:103C400010B50400002C01D1012037E0A069002844
:103C5000FFD16920205C002805D100206821605434
:103C6000200002F08FFB0220692160542068006868
:103C70000121884321680860200000F0BFF8012876
:103C800001D101201AE0606A002802D0200000F073
:103C9000F7F9206840680A490140206841602068BF
:103CA00080682A2188432168886020680068012193
:103CB000014320680160200000F054FA10BD0000AC
:103CC000FFB7FFFF10B50400002C01D101201DE05B
:103CD000022069216054206800680121884321681E
:103CE00008600020216808600020216848600020EA
:103CF00021688860200002F09BFB0020E066002025
:103D000069216054002068216054002010BD10B566
:103D100003006920185C012803D06920185C122870
:103D200066D1002902D092B2002A01D1012060E0C0
:103D30006820185C012801D102205AE00120682483
:103D40001855596558201A525A201A5298688024DA
:103D50006401A0420AD11869002803D125485C24D7
:103D6000185320E0FF205C2418531CE098680028BA
:103D70000AD11869002803D1FF205C24185312E0EF
:103D80007F205C2418530EE0986880246405A042CC
:103D900009D11869002803D17F205C24185302E060
:103DA0003F205C2418530020D8666920185C122834
:103DB00003D132206924185502E0222069241855C5
:103DC0001868006880246400044318680460186858
:103DD0008068012404431868846000206824185512
:103DE000186800682024044318680460002000E07C
:103DF000022010BDFF01000070477047F0B583B08E
:103E000004000020009010250027002600206946AD
:103E10000871A0682169014360690843E1690143B1
:103E2000009120680068904901400098084321688B
:103E30000860206840688D490140E06808432168B7
:103E40004860A069216A0143009120688068884920
:103E500001400098084321688860206885498842AD
:103E60001AD1854800688007800F002805D00228F5
:103E70000CD008D3032803D00BE0002005007EE01F
:103E8000022005007BE00420050078E00820050002
:103E900075E01020050072E020687849884222D140
:103EA00075480068C0218902014000290CD080209B
:103EB000400281420ED08020800281420DD0C0207D
:103EC0008002814203D00BE00020050057E0022071
:103ED000050054E00420050051E0082005004EE0F4
:103EE000102005004BE020689D49884222D162489D
:103EF0000068C0210903014000290CD08020C002C5
:103F000081420ED08020000381420DD0C0200003EA
:103F1000814203D00BE00020050030E002200500C4
:103F20002DE0042005002AE00820050027E01020ED
:103F3000050024E02068A749884202D1002005003E
:103F40001DE02068A449884202D10020050016E047
:103F50002068A249884202D1002005000FE02068B5
:103F60009F49884202D10020050008E020689D4951
:103F7000884202D10020050001E010200500E06920
:103F80008021090288423AD1EDB22800002806D0EB
:103F900002280DD0042811D0082818D01EE000F007
:103FA00006FF022148436168FFF7B9FB060018E0ED
:103FB0008D486168FFF7B3FB060012E000F08CFE4D
:103FC000022148436168FFF7AAFB060009E0802050
:103FD00040026168FFF7A3FB060002E0012069468A
:103FE00008718248304007003900300080B2400834
:103FF00047077F0F0F43BFB22068C76030E0EDB2C4
:104000002800002806D002280DD0042813D0082844
:104010001AD022E000F0CBFE6168FFF780FB80B28F
:104020002168C8601CE0A9486168FFF778FB80B28E
:104030002168C86014E000F04FFE6168FFF76FFB75
:1040400080B22168C8600BE0802000026168FFF741
:1040500066FB80B22168C86002E0012069460871F1
:1040600068460079FEBD0000F369FFEFFFCFFFFF58
:10407000FFF4FFFF003801403010024000440040D0
:1040800000B52421415CC90707D501684968904AF9
:104090000A40816A1143026851602421415C89070A
:1040A00007D5016849688B4A0A40C16A1143026812
:1040B00051602421415C490707D501684968864A57
:1040C0000A40016B1143026851602421415C0907D9
:1040D00007D501684968814A0A40416B114302686B
:1040E00051602421415CC90607D5016889687C4A72
:1040F0000A40816B1143026891602421415C89066A
:1041000007D501688968774A0A40C16B1143026884
:1041100091602421415C490614D501684968724ABE
:104120000A40016C114302685160016C8022520305
:10413000914207D1016849686C4A0A40416C1143B9
:10414000026851602421415C090607D5016849686D
:10415000674A0A40816C11430268516000BD00004B
:104160000048004010B504000020E0662068614966
:10417000884207D020686049884203D020685F49A0
:1041800088421FD12068006800070BD5FA239B00E6
:10419000002280218903200000F02AF8002801D0A5
:1041A000032016E02068006840070BD5FA239B0027
:1041B00000228021C903200000F01AF8002801D055
:1041C000032006E00120692160540020682160542A
:1041D000002010BD004C0040005000400014014081
:1041E00000180140001C01400024F400F0FF000012
:1041F000F4B504000F001D00FFF70FFB0600684632
:10420000007800282FD12068C0693840B8425AD0C1
:104210000020C0438542F6D0002D04D0FFF7FDFA00
:10422000801B8542EFD22068006880218843216886
:1042300008602068006820218843216808602068A1
:104240000068894901402068016020688068012178
:10425000884321688860012069216054002068211A
:104260006054032030E02068C0693840B8422AD149
:104270000020C0438542F6D0002D04D0FFF7CDFAD0
:10428000801B8542EFD22068006880218843216826
:104290000860206800682021884321680860206841
:1042A0000068714901402068016020688068012130
:1042B00088432168886001206921605400206821BA
:1042C0006054032000E00020F2BD000000127A00DC
:1042D000FFFFFDFFFFFFFEFFFFFFFBFFFF7FFFFF75
:1042E000FFEFFFFFFFDFFFFFFFFFEFFFFFFF9FFF7E
:1042F000FFFFF7FF00380140004400400048004045
:1043000000B501006920085C122803D06920085C10
:10431000322832D15220085A00280DD1086800688E
:10432000802398430B6818600868006840230343A3
:1043300008680360002021E0886880235B019842C0
:104340000DD1086900280AD1C86C02001088C00588
:10435000C00D0B681885C86C801CC86406E0C86C6A
:1043600003005B1CCB6400780B6818855220085A48
:10437000401E5223C852002000E0022000BD10B5AC
:104380000400206800684021884321680860692093
:10439000205C322803D122206921605408E0206883
:1043A0008068012188432168886001206921605468
:1043B0002000FFF721FD002010BD70B504005C2037
:1043C000265A6920205C222803D06920205C3228EC
:1043D00047D1A0688021490188420CD1206900287A
:1043E00009D1606D05002068808C30402880606DA8
:1043F000801C606508E0606D0100491C61652168F2
:10440000898C32000A4002705A20205A401E5A21DC
:1044100060525A20205A002821D1206800682021AB
:104420008843216808606920205C322803D112206B
:10443000692160540EE0206800680B490140206843
:10444000016020688068012188432168886001201C
:10445000692160542000FDF7A3F9002002E000204C
:1044600000E0022070BD0000FFFEFFFF70B582B0CB
:10447000040000252078C00700D492E0A34800681B
:104480000C21014004290ED0A04800680C210140F5
:10449000082911D19D480068C021490201408020AF
:1044A0004002814208D1BD480068800379D5606828
:1044B000002876D10120B1E2B8480068B84901402F
:1044C000B6480160B5480068B6490140B34801608C
:1044D000FFF7A3F90500B1480068800307D5FFF78F
:1044E0009CF9401BB0498842F5D3032096E26068EE
:1044F000012807D1A9480068802149020143A74843
:1045000001602DE0606800280CD1A4480068A4492F
:104510000140A2480160A1480068A24901409F48AB
:1045200001601DE0606805280ED19C48006880216C
:10453000C9020143994801609848006880214902F6
:104540000143964801600BE094480068944901409B
:104550009248016091480068924901408F4801608B
:10456000606800280ED0FFF758F905008B480068F6
:10457000800316D4FFF751F9401B8B498842F5D3CD
:1045800003204BE2FFF749F90500844800688003E7
:1045900007D5FFF742F9401B83498842F5D3032032
:1045A0003CE2207880075CD5584800680C21014027
:1045B00000290ED0554800680C21014008291BD164
:1045C00052480068C0214902014080200002814217
:1045D00012D172480068800704D5E068012801D034
:1045E00001201BE26D480068F82188432169C90059
:1045F00001436A48016034E0E06800281DD0674844
:1046000000680121014365480160FFF706F90500D4
:1046100062480068800706D4FFF7FFF8401B652852
:10462000F6D30320FAE15D480068F8218843216948
:10463000C90001435948016013E05848006801214E
:10464000884356490860FFF7E8F8050053480068BA
:10465000800706D5FFF7E1F8401B6528F6D3032055
:10466000DCE1207800072AD5206A002813D0B94859
:10467000006801210143B7480160FFF7CEF805004B
:10468000B448006880071AD4FFF7C7F8401B6528B4
:10469000F6D30320C2E1AF48006801218843AD4949
:1046A0000860FFF7BAF80500AA480068800706D539
:1046B000FFF7B3F8401B6528F6D30320AEE120785E
:1046C000400700D49FE0A4480068802149050143C9
:1046D000A1480160A0480068802149050840009079
:1046E000009E9E4800688021490001439B4801606C
:1046F000FFF793F8050099480068C00508D4FFF754
:104700008CF8401B6528F6D3032087E10410024093
:10471000C348006801218843C1490860C048006857
:1047200004218843BE490860FFF777F80500BC48BC
:104730000068800707D5FFF770F8401B1A498842C8
:10474000F5D303206AE1A068012806D1B4480068C7
:1047500001210143B248016034E0A06800280CD177
:10476000AF48006801218843AD490860AC48006843
:1047700004218843AA49086024E0A068052815D1CF
:10478000A748006804210143A5480160A4480068C7
:1047900001210143A248016014E000BF0010024063
:1047A000FFFFFEFFFFFFFBFF891300009C4800682E
:1047B000012188439A490860994800680421884388
:1047C00097490860A06800280ED0FFF726F805007A
:1047D00093480068800716D4FFF71FF8401B9149E3
:1047E0008842F5D3032019E1FFF717F805008C483C
:1047F0000068800707D5FFF710F8401B89498842F9
:10480000F5D303200AE12078C00655D56069012858
:1048100023D1854800680421014383480160824810
:1048200000680121014380480160FEF7F6FF0500A2
:104830007D480068800706D4FEF7EFFF401B65281F
:10484000F6D30320EAE078480068F8218843A1699C
:10485000C9000143744801602EE060690421C94326
:1048600088420FD170480068042188436E4908606F
:104870006D480068F8218843A169C90001436A486E
:10488000016019E06848006804210143664801603E
:10489000654800680121884363490860FEF7BDFF51
:1048A000050061480068800706D5FEF7B6FF401B8B
:1048B0006528F6D30320B1E02078800650D55B4808
:1048C00000680C2101400C290ED0584800680C21CA
:1048D0000140082911D155480068C0214902014012
:1048E000C0204002814208D14F480068C00337D53C
:1048F000E069012834D0012090E0E069002814D05C
:104900004948006880214902014347480160FEF799
:1049100084FF050044480068C00321D4FEF77DFFF2
:10492000401B6528F6D3032078E03F4800684049E3
:1049300001403D480160FEF770FF05003A480068FD
:10494000C0030DD5FEF769FF401B6528F6D3032091
:1049500064E000BF241002401C10024000700040C0
:10496000606A002859D0314800680C2101400829AC
:1049700051D0606A02283AD12E4800682E49014081
:104980002C480160FEF749FF05002A4800688001B5
:1049900006D5FEF742FF401B6528F6D303203DE015
:1049A000264800680F218843216B0143234801609A
:1049B0001E48006822490140E06A0843A16A014399
:1049C0001A4801601B4800688021490401431948C6
:1049D0000160FEF722FF05001648006880011CD424
:1049E000FEF71BFF401B6528F6D3032016E0114895
:1049F0000068114901400F480160FEF70EFF0500F5
:104A00000C480068800108D5FEF707FF401B6528A9
:104A1000F6D3032002E0012000E0002076BD00BFB5
:104A2000201002408913000034100240041002409C
:104A3000FFFFFEFF00100240FFFFFFFE2C100240B0
:104A4000FF7FC2FF70B505000C0000269D4800687E
:104A50000100C907C90FA14200D38FE0994800683F
:104A60000121884320439749086096480068010067
:104A7000C907C90FA14201D0012019E12878800798
:104A800007D591480068F0218843A96801438E4802
:104A900001602878C00700D4FBE06868012805D1D0
:104AA0008A480068800319D4012001E1686802285F
:104AB00005D186480068800110D40120F8E06868BC
:104AC000032805D182480068C00307D40120EFE025
:104AD0007E480068800701D40120E9E07A48006838
:104AE000032188436968014377480160FEF795FE1A
:104AF0000600686801280ED1734800680C21014047
:104B0000042900D1C5E0FEF788FE801B7149884268
:104B1000F2D30320CCE0686802280ED16A4800680E
:104B20000C210140082900D1B3E0FEF776FE801B7E
:104B300068498842F2D30320BAE0686803280ED19E
:104B4000614800680C2101400C2900D1A1E0FEF76A
:104B500064FE801B5F498842F2D30320A8E05A48D4
:104B600000680C210140002900D192E0FEF755FEBB
:104B7000801B58498842F2D3032099E028788007A7
:104B800007D551480068F0218843A96801434E4881
:104B900001602878C0076CD56868012805D14B48AA
:104BA0000068800319D4012082E06868022805D1DA
:104BB00046480068800110D4012079E06868032825
:104BC00005D143480068C00307D4012070E03F4886
:104BD0000068800701D401206AE03B480068032197
:104BE00088436968014338480160FEF716FE0600F5
:104BF000686801280DD1344800680C21014004295F
:104C000037D0FEF70AFE801B32498842F3D30320D7
:104C10004EE0686802280DD12B4800680C21014045
:104C2000082926D0FEF7F9FD801B2A498842F3D3D4
:104C300003203DE0686803280DD1234800680C215B
:104C400001400C2915D0FEF7E8FD801B2149884260
:104C5000F3D303202CE01C4800680C2101400029FC
:104C600007D0FEF7DAFD801B1A498842F3D30320F0
:104C70001EE0144800680121884320431149086060
:104C8000104800680100C907C90FA14201D00120E6
:104C90000EE02878400707D50B480068824901409C
:104CA000E8680843084908600020FEF79EFD0020E0
:104CB00070BD7F4800688021090301437C48016082
:104CC0007047000000200240041002400010024023
:104CD0003410024089130000F0B589B005A8754969
:104CE0001022FEF741F801A873491022FEF73CF8A4
:104CF0000024002000900025002600276B48006853
:104D000004000C202040042804D0082805D00C28DA
:104D100035D037E06948070036E005A82100890C46
:104D20000907090F405C060001A8654909680907E1
:104D3000090F405C0090C0204002204080214902C1
:104D4000884206D15D480099FEF7E9FC70430500F2
:104D500013E0C02040022040C0214902884206D111
:104D600058480099FEF7DBFC7043050005E0534806
:104D70000099FEF7D4FC704305002F0004E0514871
:104D8000070001E04D480700380009B0F0BD80B5CC
:104D9000FFF7A2FF4C49454A126812091207120F89
:104DA000895CC840494908604848006802BD80B530
:104DB000FFF7EDFF44493D4A1268120A5207520FAD
:104DC000895CC84002BD00B51F2101600168202236
:104DD0000A43026036490968490302D5052141604A
:104DE00008E033490968C90302D50121416001E0A7
:104DF000002141602E490968C90702D50121C1601F
:104E000001E00021C1602A490968C908C906C90E24
:104E100001612F490968490702D50521816008E031
:104E20002B490968C90702D50121816001E00021F1
:104E3000816028490968C90702D50121016201E0A2
:104E4000002101621A490968C90102D502214162A3
:104E500001E00121416215490968C02252020A405D
:104E6000826212490968F02292030A40C262144920
:104E700009680907090F016317490968C90702D5BD
:104E80000121416101E00021416113490968C9081C
:104E9000C906C90E816111490968090C0A00D207C7
:104EA000D20FC26100BD0000FFF8FFFF04100240F6
:104EB00000100240F87F00080880000800127A0005
:104EC0002C100240006CDC0218800008A0010020B9
:104ED00020100240241002403410024030100240E2
:104EE00070B50400002500264020205C012801D177
:104EF00002204BE001204021605420688068800738
:104F0000800F012809D120680068C00703D42068F9
:104F1000C068000401D5012000E0002000282AD14B
:104F2000606C1B490140022008436064206880686F
:104F300080210906014320688160FEF76EFC0600AF
:104F40002068806800280FD5FEF767FC801B0328C7
:104F5000F6D3606C02218843102101436164002074
:104F600040216054012011E0606C0221884301213E
:104F70000143616405E0606C20210143616401200C
:104F800005000020402160542800C0B270BD00BF61
:104F9000FFFEFFFF70B5040000250026002C01D1A4
:104FA0000120CAE03920205C002805D100203821EA
:104FB0006054200001F09DF90220392160542068DE
:104FC0000068022188432168086020680068012188
:104FD000014320680160FEF720FC0600206840685D
:104FE000C0070CD4FEF719FC801B0B28F6D3032056
:104FF0003921605400203821605403209DE020684E
:105000004068C00700D48BE0A069012806D1206861
:105010000068802101432068016005E02068006885
:105020008021884321680860E069012806D1206852
:105030000068402101432068016005E020680068A5
:105040004021884321680860206A012806D1206831
:105050000068202101432068016005E020680068A5
:105060002021884321680860606A012806D12068F1
:105070000068102101432068016005E02068006895
:105080001021884321680860A06A012806D12068A1
:105090000068082101432068016005E0206800687D
:1050A0000821884321680860E06A012806D1206849
:1050B0000068042101432068016005E02068006861
:1050C0000421884321680860A068E16801432069E1
:1050D0000843616901436068401E08432168C86154
:1050E000206800680121884321680860FEF795FB6D
:1050F000060020684068C0070CD5FEF78EFB801BB9
:105100000B28F6D303203921605400203821605445
:10511000032012E020684068C00701D40120050088
:10512000012D06D10020E0630120392160540020C8
:1051300003E0042039216054012070BD70B50200E5
:10514000002301204C69A040030010688024A400C3
:1051500000590124044310688025AD0044511068B3
:105160008024A4000059564C044010688025AD00EE
:10517000445110688024A40000594C6A240204435E
:1051800010688025AD00445110688724A4000059A0
:10519000984314688725AD006051C869002822D162
:1051A00010688324A4000059984314688325AD0037
:1051B000605110684C6908256C4300199024A400C4
:1051C000CD682D044E68B6B22E43065110684C6966
:1051D00008256C4300199124A4008D682D040E68E5
:1051E000B6B22E430651C869012822D11068832423
:1051F000A4000059184314688325AD00605110685D
:105200004C6908256C4300199024A4000D682D04F6
:105210004E68B6B22E43065110684C6908256C439F
:1052200000199124A4008D682D04CE68B6B22E43D7
:1052300006518869002809D110688124A40000590A
:10524000984314688125AD00605108E010688124FE
:10525000A4000059184314688125AD006051086905
:10526000002808D110688524A400005998431468C8
:105270008525AD0060510869012808D11068852492
:10528000A4000059184314688525AD006051086AD0
:10529000012808D110688724A40000591843146815
:1052A0008725AD00605110688024A40000590124B6
:1052B000A04314688025AD006051002070BD00003F
:1052C000FFC0FFFFF8B504000F00042500263820BA
:1052D000205C012801D102201BE10120382160540B
:1052E0003920205C222803D132203921605402E089
:1052F00012203921605420688068400102D50020C6
:1053000005000CE020688068000102D5012005003E
:1053100005E020688068C00001D502200500042D4A
:1053200000D1EFE02068102169434018C0214900F6
:1053300041580800C007C00F216810226A4389182D
:10534000C02252008850206B8068002815D1206848
:10535000102169434018C02149004058216B096859
:105360004A05216BC96811430143206810226A4332
:105370008018C0225200815017E020681021694334
:105380004018C02149004058216B4968CA00216B70
:1053900089681143226BD2680A43024320681021B6
:1053A00069434018C02149004250206B007C00072F
:1053B000000F216B08612068102169434018C22149
:1053C000490040580F218843216810226A438918F8
:1053D000C222520088502068102169434018C2211F
:1053E00049004158206B00690843216810226A4334
:1053F0008918C22252008850206BC07D0106206BA4
:10540000807D00040843216B497D09020143206B24
:10541000007D0843216810226A438918C422520083
:105420008850206BC07E0106206B807E00040843FC
:10543000216B497E09020143206B007E08432168ED
:1054400010226A438918C622520088502068102111
:1054500069434018C0214900415801200843216890
:1054600010226A438918C02252008850FEF7D5F9ED
:105470000600002D0AD12068806826490140254891
:10548000814201D1012018E0002016E0012D0AD14F
:1054900020688068204901401F48814201D10120D5
:1054A0000BE0002009E0206880681C4901401B488F
:1054B000814201D1012000E00020002812D100200B
:1054C000C0438742D5D0002F04D0FEF7A6F9801B39
:1054D0008742CED203203921605400203821605405
:1054E000032016E03920205C322803D12220392104
:1054F000605402E0012039216054002038216054BA
:10550000002006E004203921605400203821605436
:105510000120F2BD03000004000300080000031096
:1055200000B502003920105C012803D03920105C3E
:1055300012284DD13820105C012801D1022048E00A
:1055400001203823D0543920105C122803D1322096
:105550003923D05402E022203923D0540020D063D4
:105560001068406980235B00034310684361106842
:10557000406980239B0003431068436110684069C1
:105580008023DB0003431068436110684069802377
:105590001B010343106843611068406980231B02AC
:1055A00003431068436100203823D054C9B2002956
:1055B00006D110684069022303431068436105E087
:1055C000106840691023034310684361002000E025
:1055D000022000BD10B5040020684069C00717D53F
:1055E0002068806874490140734881420DD020686A
:1055F0008068724901407148814206D02068806805
:105600006F4901406E48814202D1200000F09AF8B3
:1056100020684069800709D52068C0688007800F2E
:10562000002803D00021200000F0CCF82068406959
:10563000C00609D5206800698007800F002803D0C4
:105640000121200000F0BEF820688069C0070BD55A
:1056500020684069C00507D520684069000403D56B
:10566000E06B01210143E1632068806980070BD56D
:1056700020684069800507D520684069000403D58B
:10568000E06B02210143E1632068806940070BD58C
:1056900020684069400507D520684069000403D5AB
:1056A000E06B04210143E1632068806970210140BF
:1056B00000293DD020684069000539D5206840693F
:1056C000000435D5206880697021014010290AD076
:1056D00020290DD0302910D0402913D0502916D0C0
:1056E000602919D01EE0E06B08210143E16319E055
:1056F000E06B10210143E16314E0E06B20210143E2
:10570000E1630FE0E06B40210143E1630AE0E06BFD
:1057100080210143E16305E0E06B80214900014302
:10572000E163FFE720688069702188432168886110
:10573000E06B002805D00120392160542000FCF7DF
:1057400049FE10BD10B5040020684069012188435E
:10575000216848613920205C12281DD120684069E9
:105760009149014020684161206840698F490140AA
:1057700020684161206840698D490140206841618D
:10578000206840698B490140206841612068406978
:1057900089490140206841613920205C322803D1C9
:1057A00022203921605402E0012039216054200078
:1057B000FCF702FE002010BD0300000400030008F7
:1057C0000000031038B505000C002868E4B2102171
:1057D00061434018D8214900405804210840696BB2
:1057E0008860686B806800280BD12868E4B21021BB
:1057F00061434018D82149004058400D696B08604A
:105800000AE02868E4B2102161434018D821490019
:105810004058C008696B48602868E4B210216143B1
:105820004018D8214900405802210840696BC860DF
:105830002868E4B2102161434018DA214900405839
:105840000007000F696B08612868E4B2102161430A
:105850004018DA2149004058000AC0B2696BC8619B
:105860002868E4B2102161434018DC214900405807
:10587000696B08752868E4B2102161434018DC2187
:1058800049004058000A696B48752868E4B2102145
:1058900061434018DC2149004058000C696B887551
:1058A0002868E4B2102161434018DC2149004058C7
:1058B000000E696BC8752868E4B210216143401876
:1058C000DE2149004058696B08762868E4B210214F
:1058D00061434018DE2149004058000A696B487650
:1058E0002868E4B2102161434018DE214900405885
:1058F000000C696B88762868E4B210216143401877
:10590000DE2149004058000E696BC876E4B2002CD5
:105910000CD12868C068202101432868C16028682C
:10592000406902218843296848610BE028680069C2
:1059300020210143286801612868406910218843BB
:10594000296848613920285C22281DD128684069CF
:1059500015490140286841612868406913490140A0
:1059600028684161286840691149014028684161FF
:10597000286840690F4901402868416128684069EA
:105980000D490140286841613920285C322803D143
:1059900012203921685402E001203921685428007E
:1059A000FCF7A0FC002032BDFFFEFFFFFFFDFFFF64
:1059B000FFFBFFFFFFF7FFFFFF7FFFFFD2B2203AA1
:1059C00003D30800D040002170472032D141D0409D
:1059D00048409140D14048407047FEE7F9B595B046
:1059E00014004A487844FF3025300CC813A80CC076
:1059F000099108AD0020E86101E00098241800201A
:105A00006946C88013AB0022D243210001A8801C44
:105A100001F008FD0090012805DA2078411E894137
:105A2000C943C90F00916846C0882528009E00D14F
:105A3000761E012E0EDB270039780998159A9047BB
:105A40000990002800D1EBE1E869401CE8617F1C67
:105A5000761EF1D16846C088252804D1002028612F
:105A60006861A86108E06846C0880028C5D1E86977
:105A7000D8E1010001200843641C21782029F8D0D6
:105A800023290ED02B2904D02D2907D030290BD063
:105A90000DE001000220084380B2EDE70100042080
:105AA000F9E701000820F6E701001020F3E72A29B2
:105AB00012D116990968169A11600A68091D169B79
:105AC00019606A62002A05D551426962010004200A
:105AD000084380B2641C12E0002169620AE06A6A2D
