:020000040800F2
:100000004804002021200008292000082B20000897
:100010002D2000082F2000083120000800000000DB
:100020000000000000000000000000003320000875
:10003000352000080000000037200008E1290008F2
:10004000ED290008EF290008F1290008F32900082C
:10005000F5290008F7290008F9290008112A0008E5
:10006000292A0008412A0008592A0008712A000894
:10007000732A0008752A0008772A0008792A0008E0
:100080007B2A00087D2A00087F2A00083B20000800
:10009000912A00083B2000083B2000089D2A000808
:1000A0009F2A0008A12A0008A32A0008A52A000800
:1000B000A72A0008A92A0008AB2A0008AD2A0008D0
:1000C000AF2A0008B12A0008B32A0008B52A0008A0
:1000D000B72A0008B92A0008BB2A0008BD2A000870
:1000E000BF2A0008C12A0008C32A0008DFF80CD084
:1000F00002F042FD00480047312900084804002072
:1001000036490143364A1160704770B5002100231B
:100110000F22C4784CB3324C246804F4E064C4F574
:10012000E0644FEA1421C1F1040322FA01F2447899
:1001300004FA03F1847804EA020444EA01014FEA74
:100140000111284C0678A155047804F01F054FF0E2
:10015000010404FA05F405784FEA65154FF0E0262E
:1001600006EB8505C5F8004109E0047804F01F0599
:100170000124AC401C4D0678761145F8264070BD30
:100180001A4A0A4002431A4B1A60704741B1194A91
:10019000126842EA00024FF0E023C3F8102D07E096
:1001A000144A126822EA00024FF0E023C3F8102D2F
:1001B0007047042808D14FF0E021096941F004019B
:1001C0004FF0E022116107E04FF0E021096921F0D2
:1001D00004014FF0E0221161704700000000FA05B1
:1001E0000CED00E000E400E080E100E080FFFF1F94
:1001F00008ED00E010ED00E010B50446FF48844231
:1002000009D10121480601F0DDFB00214FF000700B
:1002100001F0D8FB08E00121880601F0D3FB0021A2
:100220004FF0806001F0CEFB10BD30B502460020DB
:100230000023146824F002041460146844F00104DC
:10024000146000E05B1C546804F00104012C03D02E
:10025000A3F57F44FF3CF5D1546804F00104012C60
:1002600001D000206EE08C79012C04D1146844F098
:100270008004146003E0146824F080041460CC79D6
:10028000012C04D1146844F04004146003E01468A5
:1002900024F0400414600C7A012C04D1146844F05A
:1002A0002004146003E0146824F0200414604C7AE5
:1002B000012C04D1146844F01004146003E01468A5
:1002C00024F0100414608C7A012C04D1146844F0DA
:1002D0000804146003E0146824F008041460CC7A65
:1002E000012C04D1146844F00404146003E0146881
:1002F00024F0040414608C78A407CD7844EA0564E3
:100300000D7944EA05444D7944EA05540D886D1E83
:100310002C43D461146824F001041460002300E02D
:100320005B1C546804F00104012C03D1A3F57F4445
:10033000FF3CF5D1546804F00104012C01D10020E8
:1003400000E0012030BD10B50021837A012202FABD
:1003500003F1AB4A126842F00102AA4BC3F800262F
:100360001A46D2F81C2622EA0102A74B1A60027B29
:10037000B2B9A64A126822EA0102A44B1A60428866
:10038000C38842EA0343A24A847A42F8343002889E
:10039000838842EA03439E4A847A02EBC402536094
:1003A000027B012A16D1994A126842EA0102974B50
:1003B0001A604288038842EA0343954A847A42F8E5
:1003C0003430C288838842EA0343914A847A02EB3C
:1003D000C4025360C27A3AB98E4A126822EA010214
:1003E000884BC3F8042606E08A4A126842EA0102F2
:1003F000844BC3F80426028932B9874A126822EA7C
:100400000102804BC3F814260289012A06D1824AD0
:10041000126842EA01027B4BC3F81426427B012A90
:1004200006D1794A126842EA0102764BC3F81C26CB
:10043000734A126822F00102724BC3F8002610BD05
:1004400000218171C171017241728172C17281702A
:10045000C1700321017102214171012101807047A6
:100460006749096841F00101664AC2F8001664490B
:10047000096843F60E7221EA0201624AC2F80016C8
:100480001146D1F8001641EA0021C2F800161146C3
:10049000D1F8001621F00101C2F80016704721B111
:1004A000026842F48032026003E0026822F4803283
:1004B00002607047E1B1026842F0800202604FF4CE
:1004C000C272125842F480734FF4C27213504FF448
:1004D000CA72125842F480734FF4CA7213504FF428
:1004E000D272125842F480734FF4D27213501BE050
:1004F000026822F0800202604FF4C272125822F4A5
:1005000080734FF4C27213504FF4CA72125822F41F
:1005100080734FF4CA7213504FF4D272125822F4FF
:1005200080734FF4D2721350704710B5024600200A
:10053000936803F08063B3F1806F00D110E093689B
:1005400003F00063B3F1006F01D1012008E093686C
:1005500003F08053B3F1805F01D1022000E004205A
:1005600004287ED002F5C07303EB00131B6803F070
:10057000010402F5C07303EB00131C600B7A7BB916
:100580004B7A0C6843EA445302F5C07404EB001440
:100590002468234302F5C07404EB0014236010E0C8
:1005A0000B7A4C6843EAC4034C7A234302F5C074C7
:1005B00004EB00142468234302F5C07404EB001418
:1005C00023608B7A03F00F038B7202F5C07303EB89
:1005D00000135B6823F00F0402F5C07303EB0013F4
:1005E0005C6002F5C07303EB00135B688C7A2343F5
:1005F00002F5C07404EB001463600FE00064004077
:1006000000660040006000401C6600400C66004030
:100610004066004004660040146600408B7B1C0668
:100620004B7B44EA03440B7B44EA0323CC7A234309
:1006300002F5C07404EB0014A3608B7C1C064B7C99
:1006400044EA03440B7C44EA0323CC7B234302F5B6
:10065000C07404EB0014E36002F5C07303EB0013F5
:1006600000E007E01B6843F0010402F5C07303EBF0
:1006700000131C6010BD10B50246002321B10129F2
:1006800007D002290FD109E09068F84C00EA040372
:100690000BE09068F64C00EA040306E09068F54C25
:1006A00000EA040301E0002300BF00BFF24C181B66
:1006B000A34216D007DC83B16FF0806018180ED00B
:1006C000022818D111E0B0F5007F10D0EB4C0019D2
:1006D00009D0B0F5003F0ED10BE002230DE000235E
:1006E0000BE0002309E0002307E0012305E00123DC
:1006F00003E0012301E0002300BF00BFD8B210BD1A
:1007000021B1012907D002290FD109E0826842F006
:10071000800282600AE0826842F40042826005E062
:10072000826842F40002826000E000BF00BF7047B0
:1007300010B500F5D87303EB01131B6803F0040335
:100740001372137A53B900F5D87303EB01131B68C6
:1007500040F2FF7404EA5353136009E000F5D873C4
:1007600003EB01131B686FF0604404EAD30353608A
:1007700000F5D87303EB01131B6803F002035372F7
:1007800000F5D87303EB01135B6803F00F0393725A
:1007900000F5D87303EB01135B681B0AD37400F5F3
:1007A000D87303EB01139B68D37200F5D87303EB86
:1007B00001139B681B0A137300F5D87303EB011335
:1007C0009B681B0C537300F5D87303EB01139B68F4
:1007D0001B0E937300F5D87303EB0113DB68D3731F
:1007E00000F5D87303EB0113DB681B0A137400F5E3
:1007F000D87303EB0113DB681B0C537400F5D8733B
:1008000003EB0113DB681B0E937421B9C36843F03B
:100810002003C36003E0036943F02003036110BDBC
:1008200021B9C26842F02002C26003E0026942F0CE
:100830002002026170470246002019B9D36803F014
:10084000030006E0012903D1136903F0030000E06F
:100850000020704710B502460B4600204FF6FF718E
:10086000BBB9146824F0020444F00104146000E0F1
:10087000491E546804F00304012C01D00029F7D16B
:10088000546804F00304012C01D0002032E0012060
:1008900030E0012B13D1146824F00304146000E04D
:1008A000491E546814F0030F01D00029F8D1546890
:1008B00014F0030F01D000201CE001201AE0022BED
:1008C00017D1146824F0010444F00204146000E01D
:1008D000491E546804F00304022C01D00029F7D10A
:1008E000546804F00304022C01D0002002E001202F
:1008F00000E0002010BD014600200A6822F001023D
:1009000042F002020A604A6802F00302022A00D1A1
:100910000120704701464FF6FF7200200B6823F05C
:1009200002030B6000E0521E4B6803F00203022B2F
:1009300001D1002AF7D14B6803F00203022B00D04B
:1009400001207047014600208A6902F0700070475C
:10095000014600208A69100E7047014600208A690E
:10096000C2F3074070471AB143690B43436102E089
:1009700043698B434361704710B50246002011F470
:10098000700F08D09369C1F31304234201D00120F2
:100990002DE000202BE011F0807F08D05368C1F3D8
:1009A0001304234201D0012021E000201FE011F0B8
:1009B000006F08D09368C1F31304234201D00120D3
:1009C00015E0002013E011F0007F08D0D368C1F3D8
:1009D0001304234201D0012009E0002007E013693D
:1009E000C1F31304234201D0012000E0002010BD18
:1009F0000022234B994202D10023836111E0C1F30D
:100A0000130211F0007F01D0C2600AE011F0806F84
:100A100001D0026105E011F0006F01D0826000E0BA
:100A200042607047024600200A4201D0012000E0E7
:100A30000020704770B504460D46002660692842C4
:100A400071D0B5F5807F68D01CDC082D41D006DC64
:100A5000012D2CD0022D30D0042D7ED133E0102D6D
:100A60003DD0202D41D0402D77D144E0030000043B
:100A70000003000800000310000100080001FFF758
:100A80007000F030B5F5004F61D009DCB5F5007F9E
:100A90004AD0B5F5806F4DD0B5F5006F5DD150E00F
:100AA000B5F5803F2DD0B5F5003F56D12FE0A068B9
:100AB0005549FFF7B7FF064651E0E0680321FFF70D
:100AC000B1FF06464BE0E0680821FFF7ABFF0646A2
:100AD00045E0E0681021FFF7A5FF06463FE02069EA
:100AE0000321FFF79FFF064639E020690821FFF741
:100AF00099FF064633E020691021FFF793FF064671
:100B00002DE060680821FFF78DFF064627E060684A
:100B10001021FFF787FF064621E0A0690121FFF7BA
:100B200081FF06461BE01BE0A0690221FFF77AFF68
:100B3000064614E0A0690421FFF774FF06460EE0A4
:100B40000BE0A0697021FFF76DFF064607E06068C3
:100B50000421FFF767FF064601E0002600BF00E022
:100B60000026304670BDB1F5007F3AD00FDC202959
:100B700028D006DC01291CD004291DD0082940D129
:100B80001DE0402921D0B1F5807F3AD126E0B1F5B2
:100B9000004F31D006DCB1F5806F25D0B1F5006F84
:100BA0002FD124E0B1F5803F12D0B1F5003F28D11C
:100BB00011E0154A826025E00822C26022E010227E
:100BC000C2601FE0082202611CE01022026119E0ED
:100BD0000822426016E01022426013E004224260C4
:100BE00010E0042242600DE0042242600AE000228C
:100BF00082610422426005E0002282610422426098
:100C000000E000BF00BF704701010100002047491C
:100C100008604749C1F804044649086001F104012D
:100C20000860454845490860704700213F4982797E
:100C3000DAB33F4AD2F8002403689A433C4BC3F826
:100C400000241A46D2F8042403689A4301F10403ED
:100C50001A60027911440A68036842EA03020A60D2
:100C6000334AD2F80824036822EA0302304BC3F85F
:100C700008241A46D2F80C24036822EA0302304BF7
:100C80001A604279102A11D1294AD2F8082403683F
:100C90001A43274BC3F808241A46D2F80C240368D9
:100CA0001A43234BC3F80C240EE007E01F49427996
:100CB00011440A6803681A430A6005E00279114486
:100CC0000A6803689A430A60704700210160017155
:100CD0000C2141710021817170471A49096841EA6C
:100CE0000001134AC2F81014704701460020134A4D
:100CF00012680A4201D0012000E0002070470F492D
:100D000008607047014600200022084B1B6803EA78
:100D10000102074BD3F814340B4202D00AB1012070
:100D200000E000207047054908607047000401405A
:100D30000000014008040140FFFF0F0014040140BF
:100D40000C0401401004014001460020FF4A1068D5
:100D500000F03800084310607047FC49096821F032
:100D60000801FA4A11601146096801431160704791
:100D7000F649096821F01001F44A1160114609682A
:100D8000014311607047F248F0494860F1484860FB
:100D90007047EF48ED494860EE4848607047EB48BF
:100DA000006940F08000E94908617047E748006940
:100DB00040F08000E549086170470420E349C968B4
:100DC00001F00101012901D101200EE0DF49C968CC
:100DD00011F0040F01D0022007E0DC49C96811F0CE
:100DE000100F01D0032000E00420704700B5024638
:100DF0000423FFF7E2FF034603E0FFF7DEFF0346AD
:100E0000521E012B01D1002AF7D102B90523184641
:100E100000BD30B5044604254FF43020FFF7E6FF4F
:100E20000546042D17D1C948006940F00200C749A2
:100E3000086108464461006940F0400008614FF4D1
:100E40003020FFF7D3FF0546C048006941F6FD7129
:100E50000840BE490861284630BD10B504244FF44F
:100E60003020FFF7C3FF0446042C16D1B7480069B1
:100E700040F00400B54908610846006940F04000B0
:100E800008614FF43020FFF7B1FF0446AF48006916
:100E900041F6FB710840AD490861204610BD00B520
:100EA00002460423FFF789FF034603E0FFF785FFAF
:100EB0000346521E012B01D1002AF7D102B90523A6
:100EC000184600BD10B504244FF43020FFF7E7FFAB
:100ED0000446042C16D19D48006940F004009B494B
:100EE00008610846006940F0400008614FF4302076
:100EF000FFF7D5FF04469548006941F6FB710840AD
:100F000092490861204610BD00209049C96911F03E
:100F1000020F01D0012000E00020704730B5A52568
:100F20000424FFF7F1FF00B100254FF43020FFF754
:100F30005DFF0446042C3BD1854884498860854880
:100F400088600846006940F0200008610846006992
:100F500040F0400008614FF43020FFF747FF04469F
:100F6000042C1CD17948006941F6DF7108407749AB
:100F700008610846006940F0100008617648058065
:100F80004FF40050FFF732FF0446052C10D06F4895
:100F9000006941F6EF7108406C49086108E0052CD2
:100FA00006D06A48006941F6EF7108406749086158
:100FB000204630BDF0B504460D4604260027F00259
:100FC000FFF714FF0646042E22D16048006940F066
:100FD00001005E4908612580F002FFF707FF064621
:100FE000042E0ED1A71C280C3880F002FFF7FEFE5D
:100FF00006465648006941F6FE71084053490861AB
:1010000006E05248006941F6FE7108404F49086108
:101010003046F0BD70B504460D460426F002FFF7D9
:10102000E5FE0646042E11D14848006940F0010053
:10103000464908612580F002FFF7D8FE064643487E
:10104000006941F6FE71084040490861304670BDB4
:1010500070B505460E460424E002FFF7C7FE0446BD
:10106000042C17D13A48394988603A4888600846C4
:10107000006940F0100008612E80E002FFF7B6FE24
:101080000446052C06D03148006941F6EF7108404E
:101090002E490861204670BD2DE9F04304464FF605
:1010A000FF763746B046B1460425E443E6B2C4F3C2
:1010B0000727C4F307484FEA1469E802FFF796FED2
:1010C0000546042D3ED12248204988602148886089
:1010D0000846006940F010000861FF2E06D01F4846
:1010E00006804FF40050FFF781FE0546042D08D11D
:1010F000FF2F06D01A4807804FF40050FFF776FE06
:101100000546042D09D1B8F1FF0F06D01548A0F807
:101110000C88E802FFF76AFE0546042D09D1B9F1F3
:10112000FF0F06D00F48A0F80E98E802FFF75EFE0A
:101130000546052D06D00548006941F6EF710840C7
:10114000024908612846BDE8F08300000020024003
:1011500023016745AB89EFCD00F8FF1F08F8FF1F9B
:101160000AF8FF1F00F0FF1F30B5054604244FF4B6
:101170003020FFF73BFE0446042C41D15F48604914
:101180008860604888600846006940F02000086177
:101190000846006940F0400008614FF43020FFF736
:1011A00025FE0446042C22D15548006941F6DF7122
:1011B0000840534908610846006940F01000086182
:1011C0001DB100205049088002E0A5204E4908804A
:1011D0004FF43020FFF70AFE0446052C10D0484893
:1011E000006941F6EF7108404549086108E0052CA7
:1011F00006D04348006941F6DF7108404049086164
:10120000204630BDF0B505460E46174604243B483F
:101210003B4988603B488860E002FFF7E7FD0446F1
:10122000042C19D13648006940F010003449086197
:1012300047F0F80030432843344908804FF4005009
:10124000FFF7D4FD0446052C06D02D48006941F671
:10125000EF7108402A4908612046F0BD2848C0695E
:10126000800870472648006A7047002024490968B2
:1012700011F0200F01D0012000E00020704729B1BB
:101280001F4A126902431E4B1A6104E01C4A12698C
:1012900082431B4B1A61704701460020012908D187
:1012A000174AD26912F0010F01D0012008E0002096
:1012B00006E0134AD2680A4201D0012000E0002073
:1012C00070470F49C860704704200D49C96801F094
:1012D0000101012901D101200EE00949C96811F07D
:1012E000040F01D0022007E00549C96811F0100F72
:1012F00001D0032000E0042070470000230167456F
:1013000000200240AB89EFCD00F8FF1F02F8FF1F5D
:1013100010B50446CA48844208D10121042000F0D7
:1013200044FB0021042000F040FB46E0C548844215
:1013300008D10121082000F038FB0021082000F02E
:1013400034FB3AE0C048844208D10121102000F06B
:101350002CFB0021102000F028FB2EE0BB4884422B
:1013600008D10121202000F020FB0021202000F0E6
:101370001CFB22E0B648844208D10121402000F045
:1013800014FB0021402000F010FB16E0B14884421D
:1013900008D10121802000F008FB0021802000F00E
:1013A00004FB0AE0AC48844207D10121801500F01B
:1013B000FCFA0021A01500F0F8FA10BD10B50121CB
:1013C000084600F0F2FA0021012000F0EEFA10BD0C
:1013D0002DE9F041024600250026002000230024CC
:1013E000002791F803C00CF00F0591F803C01CF022
:1013F000100F03D091F802C04CEA0505B1F800C007
:101400001CF0FF0F31D0146800202BE04FF0010CCE
:101410000CFA00F3B1F800C00CEA03069E4220D19A
:1014200083004FF00F0C0CFA03F7BC4305FA03FCE2
:101430004CEA040491F803C0BCF1280F06D14FF028
:10144000010C0CFA00FCC2F814C00AE091F803C0C9
:10145000BCF1480F05D14FF0010C0CFA00FCC2F8AA
:1014600010C0401C0828D1D31460B1F800C0BCF1F2
:10147000FF0F34DD546800202EE000F1080C4FF01F
:10148000010808FA0CF3B1F800C00CEA03069E420A
:1014900021D183004FF00F0C0CFA03F7BC4305FA7F
:1014A00003FC4CEA040491F803C0BCF1280F05D1F9
:1014B00000F1080C08FA0CF8C2F8148091F803C087
:1014C000BCF1480F07D100F1080C4FF0010808FAF1
:1014D0000CF8C2F81080401C0828CED35460BDE838
:1014E000F0814FF6FF710180022181700421C170EB
:1014F00070470246002093680B4201D0012000E0B3
:10150000002070470146886880B27047024600207C
:10151000D3680B4201D0012000E000207047014653
:10152000C86880B2704701617047416170470AB175
:10153000016100E041617047C16070474FF4803243
:101540000A438261816182618269826970470246D1
:101550000020424B18684FF68073184040EA021092
:1015600008433E4B186070473D49C8617047F0B56D
:101570000A46002300240021002500F00046B6F1B1
:10158000004F02D1354EF16901E0344E7168C0F36D
:10159000034583B200F44016B6F5401F08D121F090
:1015A00070612E4E766826F070662C4F7E6012E0D9
:1015B00000F48016B6F5801F06D1032606FA05F45E
:1015C000A14341F0706106E0460D360103FA06F6CC
:1015D000B14341F0706122B1460D360103FA06F6BF
:1015E000314300F00046B6F1004F02D11B4EF161CD
:1015F00001E01A4E7160F0BD30B500228B071C0F60
:101600000F2303FA04F2154B08338C1053F82430DF
:101610009343124C08348D1044F8253023468C1027
:1016200053F824308C07240F00FA04F423430B4CA6
:1016300008348D1044F8253030BD0A4908607047E1
:1016400000080140000C014000100140001401405E
:1016500000180140001C0140002001400000014032
:1016600000002042DC0020420E49086070470D490E
:10167000486070470B49886070474AF6AA200949BC
:10168000086070474CF6CC40064908607047014638
:101690000020044AD2680A4201D0012000E0002064
:1016A0007047000000300040DB48006840F0010057
:1016B000D949086008464068D8490840D64948607A
:1016C00008460068D6490840D349086008460068C3
:1016D00020F4802008600846406820F4FE0048603E
:1016E0004FF41F0088607047CB49096821F48031AE
:1016F000C94A11601146096821F480211160B0F5D2
:10170000803F03D0B0F5802F0ED106E0C2490968B2
:1017100041F48031C04A116007E0BF49096841F4D3
:10172000A021BD4A116000E000BF00BF704710B5A6
:1017300001460022002300204A11012A02D1B64CA2
:10174000236806E0022A02D1B34C236A01E0B24CBE
:10175000636A01F01F02012494401C4201D0012061
:1017600000E0002010BD70B500240025002600BF59
:101770003120FFF7DCFF0646641CB4F5A06F01D0F2
:10178000002EF5D03120FFF7D2FF08B1012500E08F
:101790000025284670BD014600209F4A106820F0B1
:1017A000F80040EAC100106070479E490860704729
:1017B00002460020984B586820F47C1042EA01034E
:1017C0001843954B58607047964908667047014624
:1017D0000020914A506820F0030008435060704791
:1017E0008D48406800F00C007047014600208A4A8E
:1017F000506820F0F0000843506070470146002018
:10180000854A506820F4E060084350607047014604
:101810000020814A506820F4605040EAC1005060C6
:10182000704729B17C4A527A02437B4B5A7206E0D8
:10183000794A527AC343DBB21A40774B5A727047E7
:1018400079490860704701460020734A506820F4C7
:1018500040400843506070470021744A11706E4A3E
:1018600082F82010012802D0042808D103E00121C9
:101870006E4A117004E005216C4A117000E000BF4F
:1018800000BF70476A49086070476349096A0143AD
:10189000614A1162704767490860704730B500219E
:1018A0000022002400235C4D6D6805F00C0121B17D
:1018B000042905D0082923D105E05F4D056022E009
:1018C0005D4D05601FE0544D6D6805F47012524D7A
:1018D0006D6805F48034022505EB92421CB9574D22
:1018E000554305600BE04C4D6D6815F4003F03D087
:1018F000524D5543056002E04F4D5543056002E0EF
:101900004D4D056000BF00BF434D6D6805F0F0010F
:1019100009094B4D6B5C0568DD4045603E4D6D68C7
:1019200005F4E061090A464D6B5C4568DD40856061
:10193000394D6D6805F46051C90A414D6B5C4568CD
:10194000DD40C560344D6D6805F44041890B3D4D67
:101950006B5CC568B5FBF3F5056130BD29B12E4A56
:10196000526902432C4B5A6104E02B4A526982436C
:10197000294B5A61704729B1274A92690243264B85
:101980009A6104E0244A92698243234B9A6170472A
:1019900029B1214AD26902431F4BDA6104E01E4A91
:1019A000D26982431C4BDA61704729B11A4AD26866
:1019B0000243194BDA6004E0174AD2688243164B9F
:1019C000DA60704729B1144A12690243124B1A6156
:1019D00004E0114A126982430F4B1A6170471A4999
:1019E000086070470F49C86470470B49C871704759
:1019F0000948406A40F080700749486270470146D4
:101A00000020054A92680A4201D0012000E000202F
:101A10007047014988727047001002400000FFF8CB
:101A2000FFFFF6FE00004242D80042422010024072
:101A3000800442423C04424200127A0000093D0008
:101A400000000020100000204004424210B504466F
:101A5000FC48844209D101218803FFF7A6FF002139
:101A60004FF48040FFF7A1FF32E0F748844209D1EC
:101A700001214804FFF7A6FF00214FF40030FFF7D3
:101A8000A1FF25E0F148844209D101218804FFF734
:101A900099FF00214FF48020FFF794FF18E0EC48F5
:101AA000844209D10121C804FFF78CFF00214FF4C3
:101AB0000020FFF787FF0BE0E648844208D10121B0
:101AC0000805FFF77FFF00214FF48010FFF77AFF32
:101AD00010BD2DE9F04786B005460E460024A2460B
:101AE00000BFA1460027B08900B100BF2F462C8A55
:101AF0004CF6FF700440F08804432C82AC894EF60B
:101B0000F3100440B08831890843718908430443C5
:101B1000AC81AC8A4FF6FF400440B0890443AC82EC
:101B200001A8FFF7BBFEC748874202D1DDF810A02D
:101B300001E0DDF80CA0A88910F4004F08D00AEBF2
:101B4000CA0000EB0A1031684900B0FBF1F807E069
:101B50000AEBCA0000EB0A1031688900B0FBF1F80B
:101B60006420B8FBF0F004012009642101FB108916
:101B7000A88910F4004F08D0322000EBC900B0FB58
:101B8000F1F000F00700044308E0322000EB0910F8
:101B90006421B0FBF1F000F00F0004432C8106B08B
:101BA000BDE8F0874FF41651016000218180C180AB
:101BB00001810C21418100218181704710B50246CD
:101BC0000020108A4FF2FF0318400B884C882343F3
:101BD0008C882343CC8823431843108210BD0021F6
:101BE000018041808180C180704721B1828942F4A7
:101BF0000052828104E082894DF6FF731A4082818F
:101C00007047F0B503460024002600250020A1F50A
:101C100010676A3F00D100BF1846C1F3421401F0BB
:101C20001F06012707FA06F5012C01D10C3004E04C
:101C3000022C01D1103000E014301AB107682F4394
:101C4000076002E00768AF430760F0BD10B51AB146
:101C5000838A0B43838204E0838ACC43A4B223406B
:101C6000838210BD028A4FF6F0731A400282028A04
:101C70000A430282704782894FF2FF731A408281C1
:101C800082890A438281704721B1828942F002022F
:101C9000828104E082894FF6FD731A408281704789
:101CA000028A4FF6DF731A400282028A0A430282D6
:101CB000704721B1028A42F48042028204E0028A23
:101CC0004BF6FF731A4002827047C1F3080282800C
:101CD000704701468888C0F308007047818941F049
:101CE000010181817047028BD2B20283028B42EAEA
:101CF000012202837047028B02F47F420283028B2F
:101D00000A430283704721B1828A42F02002828214
:101D100004E0828A4FF6DF731A408282704721B155
:101D2000828A42F01002828204E0828A4FF6EF73C8
:101D30001A408282704721B1828A42F00802828270
:101D400004E0828A4FF6F7731A408282704721B10D
:101D5000828942F40042828103E08289C2F30E024A
:101D60008281704721B1828A42F40062828204E05B
:101D7000828A4FF2FF731A4082827047828A4FF63E
:101D8000FB731A408282828A0A438282704721B1A1
:101D9000828A42F00202828204E0828A4FF6FD7358
:101DA0001A408282704702460020B1F5007F00D1C0
:101DB00000BF13880B4201D0012000E000207047D3
:101DC00001F40072B2F5007F00D100BFCA43028067
:101DD000704770B502460024002300250020A1F5BD
:101DE00010666A3E00D100BFC1F3421501F01F0327
:101DF000012606FA03F3012D02D19689334006E04D
:101E0000022D02D1168A334001E0968A33400C122B
:101E1000012606FA04F41688344013B10CB10120EF
:101E200000E0002070BD10B500220023A1F5106471
:101E30006A3C00D100BF0A1201249440A3B2DC43E3
:101E4000048010BD003801400044004000480040BC
:101E5000004C00400050004000210020674A1268FA
:101E600042F48032654B1A6000BF644A126802F483
:101E70000030491C10B9B1F5A06FF6D15F4A126865
:101E800012F4003F01D0012000E00020012842D1DF
:101E90005B4A126842F01002594B1A601A461268E7
:101EA00022F003021A601A46126842F002021A6017
:101EB000524A5268514B5A601A4652685A601A4642
:101EC000526842F480625A601A46526822F47C12C8
:101ED0005A601A46526842F4E8125A601A4612686A
:101EE00042F080721A6000BF444A126812F0007F0C
:101EF000FAD0424A526822F00302404B5A601A4616
:101F0000526842F002025A6000BF3C4A526802F036
:101F10000C02082AF9D1704710B5FFF79DFF10BDDC
:101F200010B53648006840F00100344908600846A2
:101F300040683449084031494860084600683249E1
:101F400008402E4908600846006820F48020086098
:101F50000846406820F4FE0048604FF41F00886087
:101F6000FFF7DAFF4FF000602849086010BD10B598
:101F7000002100200022214B5B6803F00C0121B1FD
:101F8000042906D0082928D107E0214B214C2360E1
:101F900027E01F4B1F4C236023E0184B5B6803F4C2
:101FA0007010164B5B6803F48032022303EB904001
:101FB00022B9194B4343174C23600DE00F4B5B686C
:101FC00013F4003F04D0144B4343124C236003E04E
:101FD0000F4B43430F4C236003E00D4B0D4C23602C
:101FE00000BF00BF054B5B68C3F303130B4CE15C00
:101FF000084B1B68CB40074C236010BD001002400B
:10200000002002400000FFF8FFFFF6FE08ED00E0B0
:1020100000127A001400002000093D001800002082
:102020000648804706480047FEE7FEE7FEE7FEE772
:10203000FEE7FEE7FEE7FEE7FEE7FEE7211F0008FA
:10204000ED00000810B5002807DA0A07120EFA4B57
:1020500000F00F04241F1A5503E00A07120EF74B75
:102060001A5410BD4108F64A116000BFF4490968CE
:102070000029FBD1704710B504462146F148FEF710
:1020800054FA10BD30B5034600210022002000BFE5
:102090002BE0002225E0EC4C04EB8104A45C1C4006
:1020A0009C421BD0032A09D1042B00D117E001F177
:1020B0000C04012505FA04F4204310E0032907DA93
:1020C000941D01EB4105651B0124AC40204305E054
:1020D00002F10904012505FA04F4204300BF541C51
:1020E000E2B2042AD7DB4C1CE1B20429D1DB30BDBB
:1020F00010B50120FFF7C6FFD44908604FF0000279
:102100004FF48051D248FFF712FA01221103D04850
:10211000FFF70DFA0220FFF7B5FFCE49C1F80C0C0E
:1021200000220421CC48FFF702FA01220421CA4808
:10213000FFF7FDF90420FFF7A5FFC549C86010BDF2
:1021400001460A68A2F54072013A06D0012A06D07B
:10215000022A06D0032A08D105E0002007E001206A
:1021600005E0022003E0032001E0002000BF00BFE3
:102170000A7B02F00702B44B03F820204A7B02F0EE
:10218000070203EB80035A708A7B02F00702AE4B12
:1021900003EB80039A70CA7B02F00702AA4B03EBA1
:1021A0008003DA70CA7A022A06D1A74A13461B684E
:1021B000936013465B68D360704738B504461CB91A
:1021C00000208DF8030004E0012C02D110208DF8CE
:1021D000030003208DF802001F20ADF800006946BF
:1021E0009E48FFF7F5F838BD1FB503208DF80E00A7
:1021F00004208DF80F001F20ADF80C0003A99748AC
:10220000FFF7E6F800210846FFF7F6F90121002064
:10221000FFF7F2F902210020FFF7EEF90321002079
:10222000FFF7EAF904210020FFF7E6F90120019009
:1022300000208DF808000C208DF8090001208DF891
:102240000A0001A8FEF7F1FC06208DF800000F201F
:102250008DF801008DF8020001208DF8030068461A
:10226000FDF753FF0220019001A8FEF7DEFC0720D6
:102270008DF800006846FDF748FF0420019001A892
:10228000FEF7D3FC08208DF800006846FDF73DFFFF
:102290000820019001A8FEF7C8FC09208DF8000075
:1022A0006846FDF732FF1020019001A8FEF7BDFC43
:1022B0000A208DF800006846FDF727FF1FBD70B5A6
:1022C00005460E46002280216448FFF730F9062DAE
:1022D0000ED2DFE805F00D030507090B012407E026
:1022E000022405E0042403E0082401E0102400BFD8
:1022F00000BF0EB9012000E00020C2B221465748BD
:10230000FFF715F9012280215448FFF710F9002248
:1023100080215248FFF70BF970BD1CB504460094AC
:1023200000208DF806006846FEF77FFC1CBD70B5E6
:10233000054600242868B0F5887F00D070BD0120D4
:10234000FFF7EBFF0220FFF7E8FF0420FFF7E5FFB0
:102350000820FFF7E2FF1020FFF7DFFF0120FFF763
:102360002CFF002409E0E87A204100F00101601C04
:10237000C0B2FFF7A4FF601CC4B2052CF3DBFFF76B
:1023800033FF00BFDAE710B586B0044640F20140E3
:102390000190002002908DF80D008DF80C000120B6
:1023A0008DF80E008DF80F4001A8FFF764FE06B00F
:1023B00010BD70B505460024012D07D10121274825
:1023C000FFF797F810B944F0010426E0022D07D179
:1023D00002212248FFF78DF810B944F002041CE0F6
:1023E000042D07D104211D48FFF783F810B944F0EC
:1023F000040412E0082D07D108211848FFF779F8E6
:1024000010B944F0080408E0102D06D1102113483B
:10241000FFF76FF808B944F010045CB12246294672
:102420000FA000F0DBFB21461CA000F0D7FB2046EC
:10243000FFF7A9FF70BD000018ED00E000E400E028
:102440002800002000640040340000200C0C0140F3
:10245000001001400000014000140140000801404C
:102460003D3D3D3E202048414C5F4750494F5F4530
:102470005854495F43616C6C6261636B202C20503F
:10248000696E202025642020206E4B65795374618D
:10249000747573202025640D0A00000053656E6476
:1024A000204B657920537461747573203A20203075
:1024B000782578200D0A000000B585B0FFF7DDF81B
:1024C0006A460021FF48FEF733F99DF80A0001280B
:1024D00009D10098B0F5887F05D1FFF7CEF868469E
:1024E000FFF725FF1DE09DF80A00052819D1009887
:1024F000A0F5407101390DD00098A0F54071023966
:1025000008D00098A0F54071033903D00098B0F5C9
:10251000417F06D1FFF7B1F86846FFF711FEFFF7DC
:10252000E7FDE94801680068401CE74A106003299C
:1025300008D30020114608604FF48071E348FEF78D
:10254000F2FF04E04FF48071E048FEF7EEFF05B0C3
:1025500000BD70B504460D46E1B2DD48FFF7B5FB9E
:1025600000BFDB48008810F0800FFAD0204670BD15
:1025700010B5FFF799F84FF48030FFF7B5F8FFF783
:10258000F2F80446012C25D11020FEF7F1FB0220C1
:10259000FEF7DAFB0020FFF728F90020FFF737F9F4
:1025A000A002FFF72BF94FF4E0114FF44030FFF792
:1025B000FFF80120FFF708F900BF3920FFF7B7F84F
:1025C0000028FAD00220FFF702F900BFFFF708F950
:1025D0000828FBD110BD10B5FFF7CAFF012108463E
:1025E000FFF7C9F901210420FFF7C5F901210820EF
:1025F000FFF7C1F901211020FFF7BDF901212020CB
:10260000FFF7B9F901210846FFF7A8F901214FF4B6
:102610000470FFF7B0F9012144F21000FFF7ABF9A5
:1026200001214806FFF7B4F910BD08B54FF4C060AA
:10263000FDF766FD00214FF00060FDF7A1FD2520AC
:102640008DF8000001208DF803008DF802000220B3
:102650008DF801006846FDF758FD14208DF8000044
:1026600000208DF8010002208DF8020001208DF875
:1026700003006846FDF749FD08BD1FB56846FFF732
:1026800091FA4FF4E13000900020ADF80400ADF86D
:102690000600ADF808000C20ADF80A000020ADF8E7
:1026A0000C0069468A48FFF714FA012240F22551CE
:1026B0008748FFF7A6FA01218548FFF796FA1FBD64
:1026C00000B587B07F48FDF797FD04A8FDF7B8FE79
:1026D00000208DF816008DF817008DF818008DF881
:1026E00019008DF81A008DF81B008DF812008DF876
:1026F000130002208DF8140001208DF8150006202B
:10270000ADF8100004A96F48FDF78FFD00208DF88B
:102710000A008DF80B0001208DF80C000020ADF8A8
:102720000000ADF80200ADF80400ADF80600ADF809
:10273000080001208DF80D006846FDF704FE012217
:1027400002216048FEF70FF907B000BD10B5012067
:10275000FFF798F800BF6120FEF7E9FF0028FAD0E4
:1027600045F25550FEF780FF0620FEF780FF4FF43C
:102770009C70FEF77FFFFEF780FFFEF783FF10BD22
:1027800008B56846FEF7ADFE2020ADF80000032036
:102790008DF8020010208DF8030069464B48FEF7C3
:1027A00017FE10208DF8030048F2C010ADF80000AD
:1027B00069464648FEF70CFE012220214348FEF7F9
:1027C000B6FE002240214148FEF7B1FE01228021E1
:1027D0003E48FEF7ACFE012211023C48FEF7A7FE80
:1027E00000224FF400413948FEF7A1FE012139488B
:1027F000FEF7BDFE03208DF8020010208DF80300C7
:102800004FF6FF70ADF8000069463348FEF7E0FD73
:102810004FF6FF70314908604FF003008DF8020059
:102820004FF010008DF8030041F6FF70ADF8000086
:1028300069462B48FEF7CCFD2948C06841F6FF7178
:1028400008432749C86003208DF8020010208DF846
:1028500003000420ADF8000069462248FEF7B8FDE9
:10286000012204211F48FEF762FE4FF40060ADF81C
:10287000000003208DF8020048208DF8030069460F
:102880001248FEF7A5FD4FF48050ADF8000003207C
:102890008DF8020018208DF8030069460B48FEF7FA
:1028A00097FD4FF40070ADF8000018208DF803007C
:1028B00003208DF8020069460448FEF789FD4FF4B5
:1028C000806011E0006400402C00002000080140FE
:1028D0000038014000023000000C01400C0C0140A7
:1028E0000010014000140140ADF8000004208DF8F4
:1028F000030069462548FEF76BFD4FF4006123484D
:10290000FEF711FE4FF480512048FEF70EFE08BD81
:1029100010B5FFF760FEFFF788FEFFF7AEFEFFF78A
:10292000CFFEFFF713FFFFF72BFFFFF75DFC10BD96
:10293000FFF7EEFF00BF1648B0F1807F01D3012002
:1029400010E01348401E4FF0E02148610F214FF086
:10295000FF30FFF777FB00204FF0E0218861072070
:102960000861002018B10BA000F038F903E0002145
:10297000481EFFF767FB0DA000F030F905E04FF4AB
:102980007A70FFF76FFBFEF778FEF8E7000801406A
:10299000401901006D61696E20736574207469636C
:1029A0006B206572726F72202E0D0A003D3D3E2035
:1029B00053797374656D2052657374617274202E3F
:1029C0002E2E200D0A000000704700BFFEE700BF5A
:1029D000FEE700BFFEE700BFFEE7704770477047A5
:1029E00041480068401E4049086070477047704782
:1029F000704770477047704710B50120FEF782F9A5
:102A000028B10120FFF7D5FC0120FEF78CF910BD9D
:102A100010B50220FEF776F928B10220FFF7C9FCB5
:102A20000220FEF780F910BD10B50420FEF76AF908
:102A300028B10420FFF7BDFC0420FEF774F910BD97
:102A400010B50820FEF75EF928B10820FFF7B1FCA9
:102A50000820FEF768F910BD10B51020FEF752F9F6
:102A600028B11020FFF7A5FC1020FEF75CF910BD7F
:102A7000704770477047704770477047704770479E
:102A8000704710B519A000F0A9F8FFF715FD10BDAB
:102A900010B5FFF711FD10BD7047704770477047C4
:102AA000704770477047704770477047704770476E
:102AB000704770477047704770477047704770475E
:102AC000704770477047704770477047704770474E
:102AD000704770477047704770477047704770473E
:102AE0007047704770470000280000205553425F30
:102AF0004C505F43414E5F5258305F4952514861DC
:102B00006E646C657220746573740D0A00000000B9
:102B10002DE9F05F0546002092469B468846064612
:102B2000814640241DE0284641464746224600F0A3
:102B300044F8B0EB0A0052465B4671EB0B0110D330
:102B400010461946224600F029F82D1A67EB0108B5
:102B50004F4622460120002100F020F817EB000923
:102B60004E41201EA4F10104DDDC484631462A46D0
:102B70004346BDE8F09F0000064C074D06E0E068C4
:102B800040F0010394E8070098471034AC42F6D3B4
:102B9000FDF7B0FAE02E0008002F0008202A04DB21
:102BA000203A00FA02F1002070479140C2F1200360
:102BB00020FA03F3194390407047202A04DB203A9F
:102BC00021FA02F00021704721FA02F3D040C2F14D
:102BD0002002914008431946704700000FB4054B8E
:102BE00010B503A9044A029800F018F810BC5DF86B
:102BF00014FB0000532500083000002002E008C844
:102C0000121F08C1002AFAD170477047002001E066
:102C100001C1121F002AFBD1704700002DE9FF4FB0
:102C20008DB004469B460F4600263BE1252801D087
:102C30000F9963E00025641C9E4AA8460121237871
:102C4000203B01FA03F0104202D00543641CF6E772
:102C500020782E2817D114F8010F45F004052A28F2
:102C60000ED06FF02F022078A0F1300109290AD888
:102C700008EB880102EB410100EB0108641CF2E75C
:102C800057F8048B641C20786C280DD004DC4C2889
:102C900012D06A2811D104E074280DD07A280CD102
:102CA0000AE045F4001507E0617845F4801581429B
:102CB00002D1641C05F58015641C94F800C0BCF1B9
:102CC000690F4DD00CDCBCF1000F70D0BCF1580F77
:102CD0006FD0BCF1630F16D0BCF1640F0CD13FE094
:102CE000BCF1700F6AD0BCF1730F15D0BCF1750F39
:102CF0005BD0BCF1780F5CD00F9960465A46904784
:102D000006F10106CDE001CF8DF8000000208DF81E
:102D10000100E946012003E057F8049B4FF0FF3023
:102D200069074FF0000501D40AE06D1C45450DDA36
:102D30008542FADB19F805100029F6D106E06D1C72
:102D40008542FCDB19F805100029F8D12E4404E077
:102D500019F8010B5A460F9990476D1EF8D2A0E062
:102D60000A200021CDE90801C5F3025002280AD04B
:102D700001CFC11700290DDA0023D0EB030063EB6C
:102D800001012D2209E007F1070727F00707F7E8FF
:102D90000201EFE72A0504D52B228DF82820012215
:102DA00030E0EA072ED02022F7E70A2002E07DE09B
:102DB000FFE710200021CDE9080107E010200021E5
:102DC00045F00405CDE908014FF00808C5F30250AD
:102DD000022821D001CF00214FF0000A2A0712D586
:102DE000BCF1700F1ED0DDE9083283F010031343ED
:102DF00009D150EA010206D030228DF828208DF842
:102E000029C0022292462CA2BCF1580F00D02FA25A
:102E10000DF120090B920FE0FF1D27F00707F7E8DF
:102E20000201D9E74022B8E7DDE90823FFF770FE89
:102E30000B9B9B5C09F8013D50EA0102F4D1ADEB1C
:102E4000090000F120000890680701D44FF0010844
:102E5000089A0020904501DDA8EB0200804600257D
:102E600006E00AA85A46405D0F999047761C6D1CF3
:102E70005545F6DB04E030205A460F999047761C02
:102E8000B8F10001A8F10108F5DC05E019F8010B23
:102E90005A460F999047761C0899481E08900029B9
:102EA000F4DC641C207800287FF4C0AE11B03046FA
:102EB000BDE8F08F09280100303132333435363720
:102EC0003839414243444546000000003031323336
:102ED0003435363738396162636465660000000056
:102EE000002F00080000002034000000FC2B000828
:102EF000342F000834000020140400000C2C0008BB
:102F0000000000000102030401020304060708098F
:102F10000204060800A24A040000000000000000AD
:102F20000102030406070809000000000000000079
:042F3000000000009D
:04000005080000ED02
:00000001FF
