:020000040800F2
:10000000700800204D39000855390008573900089C
:10001000593900085B3900085D390008000000000C
:100020000000000000000000000000005F39000830
:10003000613900080000000063390008551D000800
:100040005F1D0008611D0008631D0008651D000894
:10005000671D0008691D00086B1D00086D1D000864
:100060006F1D0008711D0008731D0008751D000834
:10007000771D0008791D00087B1D00087D1D000804
:100080007F1D0008811D0008831D000867390008D6
:10009000971D000867390008673900089F1D000890
:1000A000A11D0008A31D0008A51D0008A71D00082C
:1000B000A91D0008AB1D0008AD1D0008AF1D0008FC
:1000C000B11D0008B31D0008B51D0008B71D0008CC
:1000D000B91D0008BB1D0008DD1D0008DF1D00085C
:1000E000E11D0008E31D0008E51D0008DFF80CD045
:1000F00003F0A4FC00480047B9180008700800206D
:10010000F0B503685FF00001C3F3C405C3F38334A3
:1001100005EB440C0CF1010C00EBC102D268120497
:10012000120C02D0491C0829F6DB002200EBC206A3
:10013000B76C17F0FF0F07D0D6F8906016F0FF0FDE
:1001400002D0521C092AF1DB002000290BDD002A15
:1001500009DDC3F38543634505D18D4203D1641C9A
:10016000944200D10120F0BD2DE9F04106460D4634
:10017000970802F066FA342002F06DFC304602F077
:1001800095FA042803D0E6A003F0B8FC14E0E9A037
:1001900003F0B4FC00240DE055F8241006EB8400B5
:1001A00002F023FB042804D02146E7A003F0A6FCBC
:1001B00002E0641CBC42EFDBBDE8F04102F04DBA46
:1001C00030B58BB04FF0006000242822694601F062
:1001D000A8FC6D46EAA055F8241003F08FFC641CBF
:1001E0000A2CF7D30BB030BDFEB5F0280ED0E64C8C
:1001F000F1281BD0F2282DD0F32877D00146E3A0B8
:1002000003F07CFCBDE8FE4002F07BBD1022E34918
:10021000E348FFF7A9FFE3480168E34A01F4E0611E
:1002200041EA02010160BFF3408FFEE7DB49E022B3
:100230001031DE48FFF798FFD849E0221031D2484C
:1002400003F096FB42F24530A4F8D800D8A003F0A2
:1002500055FCD7E72068C0F30001DCA003F04EFC9A
:100260002068C0F34001E0A003F048FC2068C0F320
:100270008001E6A003F042FC2068C0F3C401ECA0BA
:1002800003F03CFC2068C0F30521F0A003F036FC2D
:100290002068C0F38331F5A003F030FC2068C0F380
:1002A0008541F9A003F02AFC02F02BFD002514E0A3
:1002B00004EBC501D1E902018BB20A0242EA1061E6
:1002C000CAB2C0F307418DE80E00C0F30723C2B2E3
:1002D000691CF44803F012FC6D1C2068C0F3C400D4
:1002E000A842E5DC02F00DFD002527E035E000BF67
:1002F00004EBC50606F14806D6E900014FEA106393
:1003000043EA0123C0F30742CDE90023C0F30723EA
:10031000C2B22946E4A003F0F1FBD6E91201030EB4
:1003200043EA0123C0F30742CDE90023C0F30723CA
:10033000C2B22946ECA003F0E1FB6D1C2068C0F3BB
:100340008330A842D4DA04F1D804D4E900024FEA99
:100350001041F3A003F0D2FB54E7FFF731FF51E760
:100360002DE9F0470546071D874C4068DFF82C82D1
:10037000E0340026C0F30310A8F14008042802D09E
:1003800005280AD00CE0D5F80B10C8F83810D5F8BD
:100390000F10C8F83C10BDE8F087F020FFF724FFED
:1003A000386898F80410C0F305324FF000098A420B
:1003B0007ED1C0F3031131B1012914D002291FD01D
:1003C000032976D134E0D5F80B002060D5F80F0072
:1003D00060602068C0F30522322A03DA322262F319
:1003E0000D2020608BE0C0F30320082861D204EBCD
:1003F000C000D5F80B108160D5F80F10C1607EE009
:10040000C0F30320092879D204EBC000D5F80B1003
:100410008164D5F80F10C1643868C0F30320012847
:100420006DD1D5F80B00A064D5F80F00E06466E04C
:10043000C0F30320092861D204EBC000D5F80B20DB
:1004400000F18001C0F89020D5F80F0048613868AD
:100450002168C0F30532C1F385418A424FD110F4BF
:10046000706F4CD141F23420A4F8D800206849467E
:10047000C0F3C4020020C4F8DC9009E004EBC0051E
:10048000D4F8DC30ED68ADB22B43401CC4F8DC304E
:100490009042F3DBD4F8DC0002070FD101210209FE
:1004A00012070BD10221020A120707D1032101E032
:1004B0002DE023E0000B000700D10421A4F8DA109E
:1004C000E0223149204603F078FAA0B12046FFF738
:1004D00017FE80B1E02221463448FFF745FE2A4945
:1004E00042F24530A1F8D800D4F8D800010C97A00A
:1004F00003F004FB02E0A0A003F000FB012698F843
:100500000410491C88F80410012E7FF444AF88F8C9
:1005100004902046BDE8F047E02103F042BA000015
:10052000657261736520666C617368206661696CD1
:100530000D0A0000657261736520666C6173682046
:10054000737563630D0A00007772697465206461D6
:10055000746120746F20666C617368206661696CD9
:100560002C20616E64206861732077726974652045
:10057000256420776F726420796574210D0A00006C
:1005800030782578200A0000B00200206461746190
:10059000203D202523780D0A0000000040000020A7
:1005A00000F001080CED00E00400FA0500FC010871
:1005B000726573746F72652064656661756C742012
:1005C000636F6E666967210D0A00000062617365E2
:1005D000696E666F2E697354616B654F7665722024
:1005E0003D2025640D0A000062617365696E666FC7
:1005F0002E6973566F6C74436865636B456E6162F8
:100600006C65203D2025640D0A0000006261736561
:10061000696E666F2E6973437572436865636B45D7
:100620006E61626C65203D2025640D0A00000000AB
:1006300062617365696E666F2E70686173654E7571
:100640006D203D2025640D0A000000006261736585
:10065000696E666F2E6D696E526564437572566180
:100660006C203D2025640D0A000000006261736566
:10067000696E666F2E736368656D654E756D203D9E
:100680002025640D0A00000062617365696E666F63
:100690002E63616E546F74616C4E756D203D202524
:1006A000640D0A00003E000870686173657475721D
:1006B0006E3A25642C2066697273743A2523782C6F
:1006C000207365636F6E643A2523782C2074686903
:1006D00072643A2523782C20666F757274683A2507
:1006E00023780D0A0000000073706C69743A256469
:1006F0002C207068617365313A25642C2070686124
:100700007365323A25642C207068617365333A252D
:10071000642C207068617365343A25640D0A00000A
:10072000636F6E74726F6C426F6172644E6F3A25C4
:10073000642C20616C6C6368616E6E656C626974B8
:1007400073203D202523780D0A0000004C434263AE
:100750006F6E6669672069732075706461746121CA
:1007600020636F6E74726F6C426F6172644E6F3A89
:1007700025640D0A000000007468652072656365D9
:10078000697665204C4342636F6E666967206973C2
:1007900020696E76616C69640D0A000010B5032350
:1007A00022FA03F4E40707D0032B09D0072B0DD05E
:1007B0000B2B11D00F2B15D01B1D102BF0DB10BDF8
:1007C0000468072361F34B240460E9E7036861F3DD
:1007D000575303600B23E3E744680F2361F343049B
:1007E0004460DDE7436861F34F33436010BD30B5CB
:1007F0005FF0000322FA03F4E40716D0CBB1012B1B
:100800001DD0022B21D0042B25D0052B29D0062B5F
:100810002DD0082B31D0092B35D00A2B39D00C2BF9
:1008200043D00D2B47D00E2B4BD05B1C102BE1DBA4
:1008300030BD036861F3020303600123DAE7046853
:10084000022361F3C5040460D4E7036861F38813ED
:1008500003600323CEE7036861F30E3303600523CF
:10086000C8E7036861F3D13303600623C2E7036876
:1008700061F3944303600723BCE7036861F31A63E1
:1008800003600923B6E704680A2361F3DD640460AA
:10089000B0E7D0E90043C1F3800561F39F7465F3CD
:1008A0000003C0E900430B23A4E744680D2361F370
:1008B000061444609EE744680E2361F3C914446043
:1008C00098E7436861F38C2343600F2392E7C26883
:1008D0004A40C260704710B50146FF4801F050FC25
:1008E000FE488169491C8161042906D1002181618A
:1008F000FB48C16881F02001C16010BD00B585B022
:100900001421684603F04DF8F449887909780229E2
:1009100007D1022802D0032802D002E0002000E024
:10092000012000F20130009000208DF808000190B5
:100930008DF8090005208DF80A00E8488DF80B10A5
:100940004030016801F007018DF80C10416801F09A
:1009500007018DF80D10816801F007018DF80E1068
:10096000C06800F007008DF80F006846FFF7B3FF7E
:1009700005B000BD2DE9F041D84CDA4D403480215E
:100980002068C0F30002284602F044F920681021D4
:10099000C0F34002284602F03DF920682915C0F353
:1009A0008002284602F036F96068AE15C0F30002F6
:1009B0003146284602F02EF960682021C0F340023B
:1009C000284602F027F96068E914C0F3800228463F
:1009D00002F020F9A0686915C0F30002284602F071
:1009E00019F9A068C04FC0F340020121384602F057
:1009F00011F9A068A914C0F38002284602F00AF990
:100A0000E0683146C0F30002B54802F003F9E0683F
:100A10000221C0F340023846BDE8F04102F0FAB8C6
:100A200010B5AE49044686B048788A7890422ED1F7
:100A300040F20110009000208DF8080001908DF820
:100A4000090007208DF80A0008788DF80B0020684F
:100A50000390A088ADF810006846FFF73CFF2068BF
:100A6000C0F302019D48403001602168C1F3C2011A
:100A700041602168C1F3821181602168C1F3422184
:100A8000C160FFF777FFFFF739FF02F03AF906B0D0
:100A900010BD00B59549914A85B0D1F8D81092792A
:100AA000B2EB114F10D14FF48871009100218DF8F5
:100AB000081001918DF8091001218DF80A108DF8A8
:100AC0000B006846FFF707FF52E730B5874902235E
:100AD000057809680246C1F305211C468D4200DCF9
:100AE000002490B2557864F302001C468D4200DC6D
:100AF0000024957864F3C5001C468D4200DC002478
:100B0000D27864F388108A4200DC002363F34B2020
:100B100030BD30B540F2DB65039C294070B101283F
:100B200014D002281BD0032807D1506861F30F109E
:100B30005060606863F30F10606030BD106861F34F
:100B40000B001060206863F30B0006E0106861F38F
:100B500017301060206863F31730206030BDD2E991
:100B6000000561F31F60C1F3032161F30305C2E9CE
:100B70000005D4E90010C3F3032263F31F6162F39D
:100B80000300C4E9001030BD2DE9F047534D574E26
:100B90001C350024534FDFF8509105F10408503EF6
:100BA00007E034B1012C06D0022C1ED002214846A9
:100BB00003E0102100E02021384602F013F801285C
:100BC00024D04B4830F8143004EB8402295D06EB46
:100BD000820040F82130491CC9B22955042906D0A9
:100BE00018F80410012907D010E00121DFE70021E7
:100BF0002955012308F8043056F82210D0E90123C2
:100C00001144C2681A44114489080161641CE4B2A9
:100C1000042CC6D3BDE8F0872DE9F041324E002404
:100C20000421304601F0DEFFF0B300202B4D4FF4DD
:100C300080610E352870304601F0D4FFA8B3002043
:100C400068704FF40061304601F0CCFF70B30020B3
:100C5000A8704FF48051304601F0C4FF38B3002033
:100C6000E8704FF400513746304601F0BBFF90B3B7
:100C700000201A4E4FF480410A363070384601F099
:100C8000B1FFB8B3002070704FF40041384601F056
:100C9000A9FF80B30020B0704021124801F0A2FFEC
:100CA00050B30020F07003E02BE02CE02DE02EE0AC
:100CB0000A4A0020042310812F5D315D43EA470773
:100CC000394304EB4407B9400143641C64B2118109
:100CD000042CF1DB11E01CE0006400400000002067
:100CE0000008014000100140000C0140B00200204B
:100CF000600100200FE010E011E0C1F30B00BDE83F
:100D0000F081012092E701209AE70120A0E701206D
:100D1000A6E70120ADE70120B5E70120BBE70120F0
:100D2000C0E72DE9F04190B00446FF4ED6E90A0134
:100D3000CDE90601D6E90C01CDE90801FFF76CFF0A
:100D4000002580462F460B95FFF71EFFF7480BAA9C
:100D500000F5807130F8153005EB850C01EB8C0C3B
:100D6000DCF810C0A3EB0C031BB2FF2B01DDFF234B
:100D700002E0002B00DA002353556D1CEDB2042D68
:100D8000E8D31046FFF7A1FEB762F762376308ABFE
:100D900077630093034606AA4146B079FFF7B9FE90
:100DA0002268DDE9040140F2DB631A4062F30B00C4
:100DB00004902268C2F30B321A4062F31730049099
:100DC000D4E90025120E65F30B221A4062F31F606E
:100DD000C2F3032262F30301CDE904016268C2F3A6
:100DE0000B121A4062F30F1105912368DDE902012D
:100DF00040F29242134063F30B0002902368C3F366
:100E00000B33134063F317300290D4E900351B0E07
:100E100065F30B23134063F31F60C3F3032363F3F2
:100E20000301CDE90201636804A8C3F30B13134067
:100E300063F30F110391062206A902F0BEFD0446DA
:100E4000062208A902A802F0B8FD0246B8480068C8
:100E5000C0F34001012907D1C0F38003012B01D168
:100E600004B98AB103B97CB121B9C0F38003012B65
:100E700000D14AB173795B1CDBB273710C2B04D3C4
:100E800029B124B1032007E0777110B037E7C0F330
:100E9000800018B112B10C20FFF7FBFD0120F070AB
:100EA000F2E72DE9FC5F07460020DFF884A20090FE
:100EB0000AF1DC0401904FF004094FF0020168468A
:100EC0002268FFF794FC022168462268FFF766FC5F
:100ED000DFF854B20025012610E0012E0ED07878FC
:100EE000C0B2010930D0C0F30301072908D0052999
:100EF0000FD006293AD0042940D011E03878EFE726
:100F0000012109EBD9720C46B5EB620F09DA002416
:100F100007E0012109EBD972B5EB620F00DA00217D
:100F20000C4602090AEBC208D8F8040082B26846EF
:100F3000FFF75DFCD8F80400214682B26846FFF74F
:100F40002DFC761C022EC8DD6846FFF769FDFA20ED
:100F500000F019FE01F0D5FE9BF801109BF802206D
:100F6000914223D19BF8030058B115E0002109EB11
:100F7000D972B5EB620FCADB0421C8E70421022451
:100F8000CFE7DAF80000C0F3400111B9C0F38000E8
:100F900010B16846FFF7C5FEE80704D16548C1688F
:100FA00081F02001C1606D1C4D4594DBBDE8FC9FC4
:100FB0002DE9FF41054600200122039062F307005E
:100FC0000C460290082202A9284602F0F6FC0028EE
:100FD0007DD0D5E90021C2F30720002821DBC2F330
:100FE000074300BF14F81060B3EB161F17D1C6F308
:100FF0000306C1F30307BE4211D104EB4006170EEE
:10100000767847EA0127B7EB161F08D1C6F3030627
:10101000C1F30317BE4202D100F1010062E0401E9D
:10102000E0D501F06EFED5E90032C2F3030CBCF14D
:10103000010F03D0C2F30310012829D10020C3F30C
:10104000072123E014F81060C3F30747B7EB161F1E
:101050001BD1C6F30306664504D0072E15D1BCF19B
:10106000010F12D104EB40061F0E767847EA0227E3
:10107000B7EB161F09D1C6F30307C2F30316B74235
:1010800030D0072F01D1012E2CD0401C8142D9DA5B
:10109000294802F033FD2868C0F3072104EB410022
:1010A0004078C0F303030209CDE9002314F81100CE
:1010B000C0F30303020921A002F020FDD5E90010CE
:1010C000C0F3031300930B0E43EA002300E007E094
:1010D000C0F30302C1F3074123A002F00FFDFF207C
:1010E00004B00CE6C0B2FBE72DE9FC4707464FF021
:1010F00000090F480C4ACDF80090CDF80490927981
:10110000D0F8D8100424B2EB114F74D100258046DA
:10111000052F48D0062F4ED03E4631466846D8F8B7
:10112000DC20FFF764FB3BE00000002060010020B2
:10113000B002002000080140603E000872756E7425
:10114000696D653A25642C2072696E67313A2564B1
:101150002C2025642C2072696E67323A25642C207D
:1011600025640D0A00000000706861736552313A11
:1011700025642C206C6967687476616C75653A2506
:10118000642C20706861736552323A25642C206C9F
:101190006967687476616C75653A25640D0A0000AC
:1011A000022E10D015E0012604EBD470B5EB600FD1
:1011B000B3DA0026B1E704EBD4704E46B5EB600F0E
:1011C000ABDB0426A9E702216846D8F8DC20FFF74C
:1011D000E5FA6846FFF724FCFA2000F0D4FC01F0A1
:1011E00090FDE80704D1F748C16881F02001C16093
:1011F0006D1CA5428CDBBDE8FC8710B500241022D5
:10120000F149F24800F08DFCEF4900BF51F824008D
:10121000072808D8002806D0641C042CF6DBBDE89B
:101220001040FFF7A7BB10BDF0B5E74E85B0403EBC
:101230000025B47914212746684602F0B2FB3078C5
:10124000022807D1022C02D0032C02D002E0002495
:1012500000E001240020103701210090B9403289BC
:10126000641C41EAC201214341F40041019104217F
:101270008DF808108DF809008DF80A10D4496B46D6
:1012800001F5807231F8150005EB850402EB84044A
:101290002469001B00B2FF2801DDFF2002E00028C6
:1012A00000DA00205C196D1CEDB2E072042DE9D368
:1012B0001846FFF710FB05B0F0BD2DE9F0470426F6
:1012C000DFF804830025A94606EBD677A8F1400491
:1012D00049464A46B5EB670F01DB4FF00402C8F8F8
:1012E000002040460A4601DB4FF0040242600A46F5
:1012F00001DB4FF00402826001DB4FF00401C8F80B
:101300000C106078A17888420FD1FFF733FBFFF70C
:10131000F5FA6078A178884207D101F0F2FCFA2052
:1013200000F031FC6D1CB542D2DB73E4A64AC37AEF
:10133000403A022B9179137007D1022902D0032978
:1013400002D002E0002100E0012101EB4102920005
:10135000012303EBD202D3B2034401EB4102072184
:10136000D87A01EA82021B7BC2F108018B40D0408F
:101370000343954A99B2002000EB400321FA03F39E
:1013800003F0070342F82030401CC0B20428F3D316
:10139000704770B58F4D0821284601F023FC4400AA
:1013A0001021284601F01EFC2044C0B270BD30B5AB
:1013B00087B001F0A6FC01AA0021874800F06CFF6D
:1013C0009DF80E00072826D10199A1F58072013AF7
:1013D00021D101F096FC01A8FFF7A8FFFFF7CAFA98
:1013E000FFF78CFAFFF718FCFFF7CEFBFFF71CFFA7
:1013F000754840384178491C41704169491C416138
:10140000032906D16F49CA6882F01002CA60002120
:10141000416107B030BD0299C943090701D10828CD
:1014200019D002990904F4D50428F2D1029800F0E9
:101430000704C0F3CB050DF10F00FFF746FB624B2D
:10144000614A103B00930346641E183A2946E0B2F5
:10145000FFF75FFBDDE701A8FEF782FF01F051FC1B
:10146000D7E710B50446C1B25C4801F0BDFE5C4848
:10147000B0F800180906FBD5204610BD10B501F0E4
:1014800055FC4FF4803001F06AFC01F095FC012816
:1014900024D1102001F0C6F8022001F0B3F800209A
:1014A00001F0BFFC002001F0CAFC4FF4806001F0A5
:1014B000BFFC4FF4E0114FF4403001F09BFC0120E1
:1014C00001F0A0FC392001F062FC0028FAD00220D3
:1014D00001F09BFC01F0A0FC0828FBD110BD10B569
:1014E000FFF7CCFF0121084601F029FD012104206E
:1014F00001F025FD0121082001F021FD012110202E
:1015000001F01DFD0121202001F019FD01210846F7
:1015100001F00CFD01214FF4047001F010FD0121D8
:1015200044F2100001F00BFD0121BDE81040480617
:1015300001F00EBD38B54FF4E06000F07BFC0021F7
:101540004FF0006000F0A9FC25208DF80000012478
:101550008DF803408DF80240684600F070FC1420BE
:101560008DF8000000208DF802008DF803406846D9
:1015700000F065FC38BD1FB5684601F0BFFD4FF4B3
:10158000E13000900020ADF80800ADF804000C2117
:10159000124CADF80600ADF80A10ADF80C00694623
:1015A000204601F053FD012240F22551204601F072
:1015B000CFFD0121204601F0C1FD4021204601F070
:1015C0007BFE1FBD000801404000002000F0010824
:1015D00060010020000C0140006400400038014020
:1015E0000030014070B588B0FF4E304600F07CFC02
:1015F000684600F06AFD00248DF806408DF807402B
:1016000002208DF804008DF802408DF8034006207A
:101610000125ADF8000002948DF80550694630466A
:1016200000F075FC8DF816408DF817408DF81850B5
:10163000ADF80C40ADF81040ADF80E40ADF81240DA
:10164000ADF814408DF8195003A800F0D4FC012225
:101650000221304600F003FF08B070BD10B5012034
:1016600001F015FC612001F092FB0028FAD045F250
:10167000555001F03DFB062001F03DFB4FF49C70FE
:1016800001F03CFB01F03DFBBDE8104001F03EBB2A
:101690002DE9F843684601F09DFA0F20ADF80000EF
:1016A00000208DF80300DFF8449303248DF80240F6
:1016B0006946484601F03DFA4FF4F870ADF8000075
:1016C00010268DF803608DF802406946484601F007
:1016D00030FA4021484601F099FAADF80040C44F75
:1016E0008DF803608DF802406946384601F021FA12
:1016F0004FF61C40ADF8000004258DF803508DF81E
:1017000002406946384601F014FA0121B94801F057
:101710009EFA41F6B070ADF800008DF80360B64E49
:101720008DF802406946304601F003FA4020ADF8DA
:1017300000008DF803508DF802406946304601F0F4
:10174000F8F96E02ADF800608DF8024048208DF87F
:1017500003006946484601F0ECF9AF02ADF80070AD
:101760008DF802404FF018088DF80380694648460E
:1017700001F0DFF92802ADF800008DF8035069464A
:10178000484601F0D6F9E801ADF800008DF80240B6
:101790008DF803806946484601F0CBF9314648464A
:1017A00001F034FA3946484601F032FABDE8F883D0
:1017B00010B5924C8CB0204601F046FF9048009046
:1017C00090480021CDE901010420CDE903018020EA
:1017D00005904000069080000790202008900002AD
:1017E000CDE909016946204601F0A0FF012120460C
:1017F00001F0C6FF0CB010BD10B586B001218DF808
:10180000041000208DF805104FF46021CDE902107E
:1018100000907B4C04208DF810004C3C694620461B
:1018200001F098FD052301220021204601F012FE5F
:10183000052302220121204601F00CFE052303228C
:101840000221204601F006FE052304220321204642
:1018500001F000FE0121204601F0AEFD01212046ED
:1018600001F0A0FD204601F0BAFD204601F0BCFDCC
:101870000028FAD1204601F0BEFD204601F0C0FD4F
:101880000028FAD10121204601F0C1FD06B010BDAB
:1018900010B5FFF724FEFFF7FBFEFFF7AEFCFFF7E6
:1018A00049FEFFF785FFFFF7A7FFFFF79BFEFFF756
:1018B000D5FEBDE810405EE60025ADF5047D2F465F
:1018C00014264FF00608AA46FFF7E2FF4FF0E02487
:1018D0004D4860614FF0FF3B0F21584600F011F971
:1018E0004FF00009C4F81890072020614946584677
:1018F00000F007F9FFF74DFD444CA07100F01DF911
:10190000A17943A002F0FAF8DFF830B1FFF741FD0A
:10191000A07101F0F6F96078A178884262D17F1C4D
:10192000FFB2062F07D80EB1F01BC6B24FF47A7083
:1019300000F029F9EAE76D1C26B1FFF7BEFC761E20
:10194000F6B2E3E7B8F1000F12D00220FFF7CCFBAC
:10195000A8F1010000F0FF0803251F20FFF799F808
:101960002A4A01233832106863F307001060CDE77C
:10197000E078012815D0042D6CD8DBF8D81089B296
:10198000A1F50C50453804D1E0222C492C4800F038
:10199000C8F8022D04D91F20FFF77BF8042D04D0CE
:1019A00082E00620FFF7A0FBB0E7D4E90E01C2B247
:1019B000FE2ACDE9820103D1002262F30700829062
:1019C000C0B208280CDCC0B202A900F0E4F88246DC
:1019D00002A982A8FFF7ECFA829960F30F218291A5
:1019E00082982FE080E035E000640040000801406C
:1019F000000C0140000230000010014008000240CD
:101A00004C240140600100203F190100000000202B
:101A10003D3D3E2053797374656D2052657374614A
:101A20007274202E2E2E20675F6E426173654164B2
:101A3000647220202564200D0A000000B0020020FE
:101A400000FC0108C0F30722C1B2534690A002F087
:101A500055F829E0681F07282CD8DBF80010C1F3DF
:101A60000001012920D1A179DBF8D800B1EB104F9A
:101A70001AD18298C2B2082A16DCC0F30722524556
:101A800012DC04DB4FF0000262F30F208290C0F3FF
:101A900007214A1C62F30F20829002A800EB41004C
:101AA000FFF7FFF9042519E0FA2000F06CF801F0C7
:101AB00028F913E08298C3B2C0F30722CDE90023CE
:101AC000DBF8D810DBF800000B0CC0F30001A279A2
:101AD0007F4802F013F8FFF7F0FB0C257D48C16842
:101AE00081F04001C16011E7A070022D02D90120F0
:101AF000FEF7CFFF0026B04684F803903546374600
:101B0000D2E70907090E4FF0E022002805DA00F0BD
:101B10000F00104480F8141D7047104480F8001422
:101B2000704730B59308002204E010C81546521CD7
:101B300041F825409A42F8DB30BD10B54FF4E07112
:101B4000654801F02EFFE02263496448FFF7E9FF92
:101B50006148D0F8D80080B2A0F59051343908D14E
:101B60005D48FEF7CDFA20B1BDE810405CA001F061
:101B7000C5BF63A001F0C2FFBDE81040E02270497C
:101B8000554801F0F5BE41086D4850384162416A40
:101B90000029FCD170472DE9F05FDFF83CB18A469F
:101BA0000BEBC00000F1480800F1900900264FF44B
:101BB0000071504601F0F5FE4FF0000C01270021A6
:101BC0000846012F18F8002020D01209E4B262F371
:101BD00007142546220924D009EB151212F8013CFE
:101BE000CA18B24219D9701AC5F30312C1B20BEB6D
:101BF000C202184600F023F82C4660F303044FF0AD
:101C0000010C012F05D08AF801400AE002F00F0212
:101C1000DCE78AF800400227D1E7401CD1B208284F
:101C2000CFDB7F1C022FCADDBCF1000F04D0761C75
:101C3000F6B20AF1020ABFE73046BDE8F09F70B580
:101C4000D2E90032DCB2C3F30725C3F30746001B19
:101C5000401B801BC6B21B0E43EA02233444D8B299
:101C6000231A0220B14209D20120994205DB91B228
:101C700048F68802114200D0072070BD8C4201DD79
:101C8000052070BD62198A42FBDD042070BD000092
:101C900072756E696E666F2E736368656D656964D3
:101CA000203D2025642C2072756E696E666F2E7241
:101CB000756E74696D65203D2025642C2063796301
:101CC0006C6554696D65203D2025640D0A00000097
:101CD000A43E000800080140B002002000FC0108FA
:101CE0006C6F6164204C434220636F6E66696720AD
:101CF0007375636365737366756C210D0A0000006C
:101D0000636F6E6669672069736E277420657869F2
:101D10007374206F7220696E76616C696420696EDD
:101D200020666C6173682C206C6F6164206465664A
:101D300061756C7420636F6E666967210D0A00001F
:101D4000500000207047FEE7FEE7FEE7FEE7704721
:101D5000704770472C480168491E01607047704702
:101D600070477047704770477047704770477047BB
:101D700070477047704770477047704770477047AB
:101D800070477047704710B520A001F0B7FEBDE85E
:101D90001040FFF70CBBFFF70ABB70477047704756
:101DA000704770477047704770477047704770477B
:101DB0007047704770477047704710B51C4C40F231
:101DC0002551204601F07BFA002806D0204601F07C
:101DD0000FFABDE81040FEF707BA10BD7047704714
:101DE000704770477047704770477047704770473B
:101DF000704770477047704770477047704770472B
:101E00007047704770477047240000205553425F69
:101E10004C505F43414E5F5258305F4952514861C8
:101E20006E646C657220746573740D0A00000000A6
:101E30000038014028490843284908607047F0B538
:101E40000F22C57803784FF0E0210124E5B1D1F8E5
:101E50000C5D467805F4E065C5F5E0652D0AC5F131
:101E60000407EA408578BE40154035430B442A01FB
:101E700083F800240078420900F01F00844001EB41
:101E80008200C0F80041F0BD03F01F0084405809F3
:101E900001EB8000C0F88041F0BD114A11400143C0
:101EA0001048016070474FF0E0220029D2F8101D61
:101EB00001D0014300E08143C2F8101D70474FF08C
:101EC000E0210428086903D020F00400086170476D
:101ED00040F00400FAE700000000FA050CED00E015
:101EE00080FFFF1F08ED00E0FF4910B588424FF06A
:101EF000010101D14C0601E04FF08064204601F061
:101F000039F82046BDE81040002101F033B830B563
:101F10000368002223F00203036004684FF6FF7396
:101F200044F00104046000E0521C4468E40701D15D
:101F30009A42F9D14268D2073ED08A79012A0268D2
:101F40003CD022F080020260CA79012A026838D0AF
:101F500022F0400202600A7A012A026834D022F09C
:101F6000200202604A7A012A026830D022F0100270
:101F700002608A7A012A02682CD022F008020260EC
:101F8000CA7A012A026828D022F0040202608A7804
:101F9000CD7892070C7942EA056242EA04444D7911
:101FA0000A8844EA0551521E1143C16102680021AA
:101FB00022F00102026014E0002030BD42F08002F5
:101FC000C1E742F04002C5E742F02002C9E742F013
:101FD0001002CDE742F00802D1E742F00402D5E753
:101FE000491C4268D20701D09942F9D14068C00724
:101FF000E2D1012030BD30B5837ABC4901229A403C
:102000000B6843F001030B60CB6923EA0203CB6149
:10201000037BA1F5C061B3B9D1F80C369343C1F885
:102020000C364388C488857A43EA044301EBC5042F
:10203000C4F8403603888488857A43EA044301EB78
:10204000C504C4F84436037B012B14D1D1F80C36F7
:102050001343C1F80C36847A036801EBC4044FEAD9
:102060003343C4F84036847A436801EBC4044FEA32
:102070003343C4F84436C37A002BD1F8043606D073
:1020800053EA0203C1F80436038913B106E093430F
:10209000F8E7D1F814369343C1F814360389012BBD
:1020A00004D1D1F814361343C1F81436407B01280B
:1020B00004D1D1F81C061043C1F81C06D1F8000663
:1020C00020F00100C1F8000630BD00218171C1710E
:1020D000017241728172C1728170C17003210171FC
:1020E0000221417101210180704780490A6842F054
:1020F00001020A600A6843F60E7322EA03020A60CC
:102100000A6842EA00200860086820F001000860C0
:1021100070470029016802D041F4803101E021F4C8
:102120008031016070470029016813D041F08001BF
:102130000160D0F8841141F48071C0F88411D0F8A6
:10214000941141F48071C0F89411D0F8A41141F4B5
:10215000807112E021F080010160D0F8841121F437
:102160008071C0F88411D0F8941121F48071C0F806
:102170009411D0F8A41121F48071C0F8A411704713
:1021800070B50246002093685B0108D49068000196
:1021900001D5012003E09068C00032D5022002EB97
:1021A0000012D2F8803103F00103C2F880310B7ABB
:1021B0004BB3D2F880414D7A4E681C4345EAC603C2
:1021C0001C43C2F880418B7A02F5C07203F00F0302
:1021D0008B72536823F00F03536053688C7A43EA81
:1021E00004035360CB7ACC6843EA04239360CB7B2F
:1021F000096943EA0121D160116841F001011160D0
:1022000070BD042070BDD2F880314C7A0D68234334
:1022100043EA4553C2F88031D5E7002221B10129B4
:1022200005D0022906D112E08268314801E08268B7
:10223000304802403049501A8A4214D00ADCA2B118
:102240006FF08060101813D002280CD10FE0826864
:102250002A48EEE7B0F5007F09D02949401807D099
:10226000B0F5003F03D0002002E0022000E0012092
:10227000C0B2704741B101290AD0022903D1816857
:1022800041F4000181607047816841F08001F9E705
:10229000816841F40041F5E710B500EB0113D3F874
:1022A000B04114F004041472D3F8B04142D0E408F1
:1022B000C2F8044003F5D8731C6804F00204547299
:1022C0005C6804F00F0494725C684FEA1424D474C0
:1022D0009C68D4729C684FEA142414739C684FEA7B
:1022E000144454739C680DE0006400400066004094
:1022F00003000004000300080001000800000310B0
:102300000001FFF74FEA14649473DC68D473DC684F
:102310004FEA14241474DC684FEA14445474DB68E4
:1023200000294FEA1361917407D0016941F020013F
:10233000016110BD640D1460BCE7C16841F020016B
:10234000C16010BD21B1016941F0200101617047F8
:10235000C16841F02001C16070470246002031B1E0
:10236000012903D1D2F8100000F003007047D068B3
:10237000FAE700234FF6FF7221B1012917D0022995
:1023800024D03AE0016821F0020141F0010101602E
:1023900000E0521E416801F00301012901D0002A2A
:1023A000F7D1406800F00300012823D124E0016840
:1023B00021F00301016000E0521E4168890701D04D
:1023C000002AF9D14068800714D115E0016821F096
:1023D000010141F00201016000E0521E416801F07C
:1023E0000301022901D0002AF7D1406800F0030060
:1023F000022801D0002300E001231846704702683C
:10240000002122F0010242F002020260406800F066
:102410000300022800D101210846704703684FF6E7
:10242000FF71002223F00203036001E0A1F101012A
:1024300043689B0701D50029F8D14068800700D484
:102440000122104670478069C0F3021000017047F6
:102450008069000E70478069C0F307407047002A0A
:10246000426901D00A4300E08A4342617047024654
:10247000002011F4700F03D0926904E0012070472E
:10248000CB0104D552680A401103F7D170470B0104
:1024900001D59268F7E78B0101D5D268F3E712699D
:1024A000F1E7564A914202D1002181617047C1F3A0
:1024B00013028B0101D5C26070474B0101D5026147
:1024C0007047090101D5826070474260704710B5BE
:1024D000436900220B424FD0B1F5807F3CD010DC25
:1024E00008292AD006DC012920D0022921D004297C
:1024F00042D120E0102922D0202923D040293BD1ED
:1025000023E0B1F5004F32D009DCB1F5007F26D0D1
:10251000B1F5806F26D0B1F5006F2DD124E0B1F573
:10252000803F15D0B1F5003F26D113E080683449D3
:102530001FE0C06804E0C06805E0C06806E000690C
:10254000032116E00069082113E00069102110E062
:102550004068F8E74068F9E78069012109E080698F
:10256000022106E0806903E08069702101E0406893
:10257000042100F03DF80246104610BD30B5082396
:1025800010240422B1F5007F1DD010DC202929D0B1
:1025900007DC012921D0042922D0082900D1C460F8
:1025A00030BD402920D0B1F5807FF9D10BE0002566
:1025B000B1F5004F06D008DCB1F5806F03D0B1F55E
:1025C000006FEDD18561426030BDB1F5803F0DD027
:1025D000B1F5003FF8D1446030BD0949816030BD9C
:1025E000C36030BD036130BD046130BD436030BDA8
:1025F0000022084200D00122104670477000F030DF
:1026000001010100FB4A116801F03801014311602A
:102610007047F8490A6822F008020A600A68024313
:102620000A607047F3490A6822F010020A600A68DB
:1026300002430A607047EF48EF494160EF4941604B
:102640007047EC48EC494160EC4941607047E9480B
:10265000016941F0800101617047E648016941F07C
:10266000800101617047E3490420CA68D20701D0A4
:1026700001207047CA68520701D502207047C96817
:10268000C906FBD50320704700B50346FFF7EBFFF3
:1026900003E000BFFFF7E7FF5B1E012803D0002B1C
:1026A00000D1052000BD002BF4D1FAE770B5054636
:1026B0004FF430263046FFF7E7FF042811D1CD4C08
:1026C000206940F0020020616561206940F040000F
:1026D00020613046FFF7D8FF216941F6FD721140B5
:1026E000216170BD30B54FF430252846FFF7CCFF8F
:1026F000042810D1BF4C206940F0040020612069FB
:1027000040F0400020612846FFF7BEFF216941F6F6
:10271000FB721140216130BD00B50346FFF7A3FFF6
:1027200003E000BFFFF79FFF5B1E012803D0002BD3
:1027300000D1052000BD002BF4D1FAE730B54FF4ED
:1027400030252846FFF7E8FF042810D1A94C20695E
:1027500040F004002061206940F0400020612846DC
:10276000FFF7DAFF216941F6FB721140216130BDAC
:10277000A0490020C969890700D50120704770B5BC
:10278000A525FFF7F5FF00B100254FF430263046B0
:10279000FFF77AFF042827D1964C9748A060974806
:1027A000A060206940F020002061206940F04000D6
:1027B00020613046FFF768FF41F6EF7604280ED11E
:1027C000206941F6DF7108402061206940F0100067
:1027D00020618B4805804FF40050FFF755FF052816
:1027E00002D021693140216170BDF0B505464FF43A
:1027F000005C0E466046FFF747FF042814D17D4C6D
:10280000206940F0010020612E806046FFF73CFF08
:1028100041F6FE77042804D1300C68806046FFF74B
:1028200033FF216939402161F0BDF0B505464FF411
:1028300000570E463846FFF727FF04280CD16D4C91
:10284000206940F0010020612E803846FFF71CFF10
:102850002169BA1E11402161F0BDF0B505464FF463
:1028600000570E463846FFF70FFF042813D1614C7E
:102870006148A0606148A060206940F010002061BC
:102880002E803846FFF700FF052804D0216941F665
:10289000EF7211402161F0BD2DE9F043C043C4B295
:1028A000C0F30725C0F30746070E4FF4005948460A
:1028B000FFF7EAFE04283AD1DFF838C14E49CCF8D8
:1028C00008104E49CCF80810DCF81010DFF83481FD
:1028D00041F01001CCF81010FF2C06D0A8F80848E1
:1028E0004846FFF7D1FE042818D1FF2D06D0A8F8DE
:1028F0000A584846FFF7C8FE04280FD1FF2E06D01D
:10290000A8F80C684846FFF7BFFE042806D1FF2F41
:1029100006D0A8F80E784846FFF7B6FE052806D080
:10292000DCF8101041F6EF721140CCF81010BDE841
:10293000F08370B506464FF430252846FFF7A4FE15
:10294000042818D12B4C2C48A0602C48A06020698A
:1029500040F020002061206940F0400020612846BE
:10296000FFF792FE41F6DF71042805D0052802D05A
:1029700022690A40226170BD2069084020612169F6
:10298000204841F0100121610EB1002100E0A52195
:10299000A0F800182846FFF777FE0528EBD021693C
:1029A00041F6EF721140216170BDF0B5114C064641
:1029B00011480D461746A0601048A0604FF4005C17
:1029C0006046FFF761FE042813D1206940F0100033
:1029D00020613D430C49354345F0F80008806046CE
:1029E000FFF752FE052804D0216941F6EF7211402D
:1029F0002161F0BD0020024023016745AB89EFCD86
:102A000000F8FF1F00F0FF1F02F8FF1F1C48C069FD
:102A1000800870471A48006A704719490020096801
:102A2000890600D501207047154A0029116901D097
:102A3000014300E081431161704701460020104AC4
:102A4000012903D0D2680A4203D17047D169C9076E
:102A5000FBD0012070470A49C8607047084904202C
:102A6000CA68D20701D001207047CA68520701D551
:102A700002207047C968C906FBD5032070470000D3
:102A800000200240904910B5884206D1012104205F
:102A900000F067FA002104203BE08C49884206D10F
:102AA0000121082000F05DFA0021082031E088496A
:102AB000884206D10121102000F053FA0021102095
:102AC00027E08449884206D10121202000F049FAFC
:102AD000002120201DE08049884206D101214020AC
:102AE00000F03FFA0021402013E07C49884206D1E3
:102AF0000121802000F035FA0021802009E078498A
:102B000088420AD184150121204600F02AFA0021CA
:102B10002046BDE8104000F024BA10BD10B50121D8
:102B2000084600F01EFA0021BDE81040012000F028
:102B300018BA2DE9F041CA780025D30602F00F0239
:102B400001D58B781A430B884FF00F084FF0010C1A
:102B500013F0FF0F1BD004680E880CFA05F31E401B
:102B60009E4210D1AF0008FA07F624EA060602FAE0
:102B700007F43443CE78282E02D0482E02D002E04B
:102B8000436100E003616D1C082DE5D304600B88F0
:102B9000FF2B1DD94468002505F108060CFA06F341
:102BA0000E881E409E420FD1AF0008FA07F624EAB5
:102BB000060602FA07F43443CE78282E00D143618A
:102BC000CE78482E00D103616D1C082DE4D34460FB
:102BD000BDE8F0814FF6FF71018002218170042170
:102BE000C17070470246002092680A4200D001205E
:102BF0007047806880B2704702460020D2680A425F
:102C000000D001207047C06880B2704701617047F2
:102C1000416170470AB10161704741617047C1600D
:102C2000704741F48032826181618261816980698B
:102C300070472C4B10B51A684FF68074224042EA58
:102C400000100843186010BD2749C8617047F0B5EF
:102C5000244C002801DAE36900E06368420D1201A8
:102C600085B2C0F301579540C0F30346032F05D04A
:102C7000C2020AD50322B240934307E023F07062F8
:102C8000636823F07063636002E0AB4343F07062FB
:102C900001B12A43002801DAE261F0BD6260F0BDB3
:102CA00010B58A0721F003040E49130F21440F22A7
:102CB0008C689A4094438C608A68984002438A608A
:102CC00010BD0A490860704700080140000C01402F
:102CD000001001400014014000180140001C014098
:102CE000002001400000014000002042DC002042A2
:102CF0000D49086070470C49486070470A49886070
:102D0000704709494AF6AA200860704706494CF600
:102D1000CC4008607047044A01460020D2680A424D
:102D200000D001207047000000300040A348016837
:102D300041F0010101604168A14A11404160016810
:102D4000A04A11400160016821F4802101604268BD
:102D50004FF41F0122F4FE024260816070479749E0
:102D60000A6822F480320A600A68B0F5803F22F4D3
:102D700080220A6007D0B0F5802F03D1086840F4A4
:102D8000A02008607047086840F48030F9E70246E8
:102D9000002053098949012B0AD0022B0AD0496A25
:102DA00002F01F02012393400B4200D00120704724
:102DB0000968F5E7096AF3E730B500244FF4A06528
:102DC0003120FFF7E4FF641CAC4201D00028F7D0AB
:102DD0003120FFF7DCFF002800D0012030BD77490B
:102DE0000A6822F0F80242EAC0000860704776499B
:102DF00008607047714A5368084323F47C131843F2
:102E0000506070477049086670476C4A516821F0FD
:102E100003010143516070476848406800F00C00AE
:102E20007047664A516821F0F001014351607047D4
:102E3000624A516821F4E0610143516070475F4983
:102E40004A6822F4605242EAC000486070475B4A18
:102E50000029517A01D0014300E08143517270474B
:102E60005A4908607047554A516821F4404101436E
:102E700051607047564900220A7001F82029012844
:102E800002D0042802D1052081F820007047514962
:102E90000860704749490A6A02430A6270474E490E
:102EA00008607047454910B54B684C4A13F00C0355
:102EB00003D0042B01D0082B26D002604A68484B6F
:102EC00002F0F00212099C5C0268E24042604C6829
:102ED00004F4E064240A1C5D22FA04F484604C6863
:102EE00004F460544FEAD4241B5D22FA03F2C2605A
:102EF00049683B4B01F440414FEA91311B1F595C3B
:102F0000B2FBF1F1016110BD4A684B68022402F482
:102F1000701204EB924213F4803F02D04B689B0383
:102F200001D5304B00E02D4B5A43C6E7234A002918
:102F3000516901D0014300E08143516170471F4A4C
:102F40000029916901D0014300E0814391617047FC
:102F50001A4A0029D16901D0014300E08143D161BF
:102F60007047164A0029D16801D0014300E081432F
:102F7000D1607047114A0029116901D0014300E076
:102F80008143116170471849086070470E49C86451
:102F900070470A49C87170470848416A41F080711A
:102FA00041627047054A0146002092680A4200D0FB
:102FB00001207047014988727047000000100240EC
:102FC0000000FFF8FFFFF6FE00004242D800424238
:102FD00020100240800442423C04424200127A0027
:102FE0003401002000093D0040044242C64910B5AA
:102FF00088420AD101218C032046FFF7B2FF204608
:10300000BDE810400021FFF7ACBFC049884202D1A3
:1030100001214C0410E0BE49884202D101218C04F8
:103020000AE0BC49884202D10121CC0404E0BA493B
:1030300088420AD101210C052046FFF79BFF20465C
:10304000BDE810400021FFF795BF10BD30B5044624
:10305000008A85B00D464CF6FF710840E9880143AF
:103060002182A1894EF6F3100140A8882A891043D5
:103070006A890A431043A081A08A4FF6FF410840A5
:10308000A9890143A1826846FFF70CFF9E4884424C
:1030900001D1039800E00298A1890904002900EBFE
:1030A000C00101EB0010296802DA4FEA410101E09A
:1030B0004FEA8101B0FBF1F06422B0FBF2F14FEA7C
:1030C00001114FEA11136FF018056B43A58900EB4E
:1030D00083004FF032032D0406D503EBC000B0FB94
:1030E000F2F000F0070005E003EB0010B0FBF2F097
:1030F00000F00F000843208105B030BD4FF4165199
:10310000016000218180C18001810C224281818186
:10311000704730B5038A4FF2FF0213400A884D888A
:103120008C88C9882A430C4322431A43028230BD4B
:103130000021018041808180C18070470029818900
:1031400002D041F4005101E021F400518181704727
:1031500010B5C1F3421301F01F040121A140012B5E
:1031600007D0022B07D01430002A026805D00A438A
:1031700004E00C30F8E71030F6E78A43026010BD37
:10318000002A828A01D00A4300E08A438282704783
:10319000028A22F00F020282028A0A4302827047E8
:1031A000828922F40062828182890A438281704787
:1031B0000029818902D041F0020101E021F00201E1
:1031C00081817047028A22F020020282028A0A4329
:1031D000028270470029018A02D041F4804101E057
:1031E00021F4804101827047C1F30801818070475A
:1031F0008088C0F308007047818941F00101818116
:103200007047028BD2B20283028B42EA0121018312
:103210007047028B02F47F420283028B0A430283CF
:1032200070470029818A02D041F0200101E021F09D
:103230002001818270470029818A02D041F010016B
:1032400001E021F01001818270470029818A02D0BB
:1032500041F0080101E021F0080181827047002956
:10326000818902D041F4004101E0C1F30E01818166
:1032700070470029818A02D041F4006101E021F405
:10328000006181827047828A22F004028282828AEF
:103290000A43828270470029818A02D041F00201EC
:1032A00001E021F00201818270470246002012886D
:1032B0000A4200D001207047C9430180704770B5B1
:1032C00001F01F0601220025C1F3421302FA06F4A1
:1032D000012B0FD0022B0FD0838A4FEA11210088D7
:1032E000234202FA01F200EA020001D000B10125F6
:1032F000284670BD8389F0E7038AEEE70A0A0121B8
:103300009140C943018070470038014000440040AB
:1033100000480040004C004000500040C24910B539
:10332000884202D1012144150AE0C049884202D1F5
:103330000121041504E0BE4988420AD10121CC03D1
:103340002046FFF70EFE2046BDE810400021FFF7A3
:1033500008BE10BD30B54268B64B0C791A400B68F8
:1033600042EA0422134343608368B34A4D79134011
:10337000D1E9024243EA450322431A438260C26A0A
:10338000097C22F47002491EC9B242EA0151C162AD
:1033900030BD00210160017141718160C160012176
:1033A000017470470029816802D041F0010101E0F9
:1033B00021F00101816070470029816802D041F449
:1033C000807101E021F4807181607047002A4268B9
:1033D000C9B201D00A4300E08A4342607047816865
:1033E00041F00801816070470146002089680907A3
:1033F00000D501207047816841F004018160704769
:10340000014600208968490700D50120704700293E
:10341000816802D041F4A00101E021F4A0018160A3
:103420007047014600208968490200D50120704795
:103430004268491E22F4604242EA413141607047CD
:103440000029416802D041F4006101E021F40061EB
:103450004160704770B5072509290AD9C468A1F1F0
:103460000A0606EB4606B540AC43B3401C43C460B5
:1034700007E0046901EB4106B540AC43B3401C438F
:1034800004611F23072A09D2446B521E02EB8202F9
:1034900093409C4391400C43446370BD0D2A09D274
:1034A000046BD21F02EB820293409C4391400C4379
:1034B000046370BDC46A0D3A02EB820293409C43E0
:1034C00091400C43C46270BD0029816802D041F470
:1034D000801101E021F4801181607047C06C80B2DE
:1034E00070475648006870470029416802D041F48F
:1034F000806101E021F480614160704700294168EA
:1035000002D041F4805101E021F4805141607047C4
:10351000826822F4E0420A43826070470029816891
:1035200002D041F4004101E021F400418160704784
:103530000029816802D041F4021101E021F4021156
:1035400081607047014600208968890200D501200A
:10355000704770B5072509290AD9C468A1F10A0680
:1035600006EB4606B540AC43B3401C43C46007E0DD
:10357000046901EB4106B540AC43B3401C43046110
:10358000836BC3F30154121B921C02EB82041F22B3
:10359000A2409343A1400B43836370BD826B491EDD
:1035A00022F4401242EA0151816370474250704751
:1035B0000844806A80B270474268214B1A400A432F
:1035C00042607047416282627047426822F01F0287
:1035D0000A43426070471B490028D1F8080402D012
:1035E00040F4000001E020F40000C1F80804704736
:1035F0000246002012680A4200D001207047C943E9
:103600000160704710B5002244680B0A0068C9B217
:103610000C40184201D004B10122104610BD6FEADF
:103620001121016070470000002401400028014082
:10363000003C0140FFFEF0FFFDF7F1FF4C2401408C
:10364000FFFD3FFF0020014002684FF6FE7300219E
:103650001A400260016041608160C1606949694A45
:103660000839904203D1486840F00F0006E0654AEF
:103670001432904204D1486840F0F000486070472E
:10368000604A2832904203D1486840F47060F5E700
:103690005C4A3C32904203D1486840F47040EDE708
:1036A000584A5032904203D1486840F47020E5E710
:1036B000544A6432904203D1486840F47000DDE718
:1036C000504A7832904203D1486840F07060D5E7A4
:1036D0004D4A904204D1D1F8040440F00F0007E0B5
:1036E000494A1432904206D1D1F8040440F0F00067
:1036F000C1F804047047444A2832904204D1D1F8FA
:10370000040440F47060F3E73F4A3C32904204D135
:10371000D1F8040440F47040EAE73B4A503290424A
:10372000E8D1D1F8040440F47020E1E770B50368F3
:1037300047F6F0729343D1E904460D6A8A68344330
:103740002A432243D1E906542A432243D1E90954AA
:103750002A4322431A430260CA6842600A688260B0
:103760004968C16070BD0021016041608160C16035
:10377000016141618161C1610162416281627047A1
:103780000029016802D041F0010102E04FF6FE720B
:10379000114001607047002A026801D00A4300E02E
:1037A0008A430260704741607047406880B270474A
:1037B00001460020154ACB0002D5D2F8002400E0D3
:1037C00012680A4200D0012070471049C20002D599
:1037D000C1F80404704748607047014600200B4A56
:1037E000CB0002D5D2F8002400E012680A4200D0D3
:1037F000012070470549C20002D5C1F80404704792
:10380000486070470800024008040240000002407F
:10381000464810B5016841F0010101604168444A21
:10382000114041600168434A11400160016821F480
:1038300080210160416821F4FE0141604FF41F01C5
:10384000816000F02FF83C494FF00060086010BD27
:10385000364910B54B68394A394813F00C0303D088
:10386000042B01D0082B0BD002604A683449C2F304
:103870000312091D895C026822FA01F2026010BD80
:103880004A684B68022402F4701204EB924213F46B
:10389000803F02D04B689B0301D52A4B00E0274BA9
:1038A0005A43E1E721480021026842F48032026075
:1038B0004FF4A0630268491C12F4003F01D1994201
:1038C000F8D10168890330D51F490A6842F0100217
:1038D0000A600A6822F003020A600A6842F00202E3
:1038E0000A604168416041684160416841F480611B
:1038F0004160416821F47C114160416841F4E81164
:103900004160016841F08071016001688901FCD566
:10391000416821F003014160416841F002014160CA
:103920004168C1F381010229FAD1704700100240B9
:103930000000FFF8FFFFF6FE08ED00E000127A003D
:103940004401002000093D00002002400648804755
:1039500006480047FEE7FEE7FEE7FEE7FEE7FEE774
:10396000FEE7FEE7FEE7FEE711380008ED0000087D
:1039700040EA01039B0703D009E008C9121F08C0F1
:10398000042AFAD203E011F8013B00F8013B521E71
:10399000F9D27047D2B201E000F8012B491EFBD2E8
:1039A00070470022F6E710B5044608461146024665
:1039B0002046FFF7EFFF204610BD30B5044600203B
:1039C000034600E05B1C934203D2E05CCD5C401BED
:1039D000F8D030BD2DE9F05F0546002092469B46A9
:1039E00088460646814640241DE028464146474613
:1039F000224600F044F8B0EB0A0052465B4671EBF9
:103A00000B0110D310461946224600F029F82D1A52
:103A100067EB01084F4622460120002100F020F804
:103A200017EB00094E41201EA4F10104DDDC4846DD
:103A300031462A464346BDE8F09F0000064C074D3C
:103A400006E0E06840F0010394E80700984710346E
:103A5000AC42F6D3FCF74EFBF03E0008103F0008E6
:103A6000202A04DB203A00FA02F10020704791403E
:103A7000C2F1200320FA03F3194390407047202A33
:103A800004DB203A21FA02F00021704721FA02F308
:103A9000D040C2F12002914008431946704770B5EA
:103AA00001EB020410F8015B15F0070301D110F8D7
:103AB000013B2A1106D110F8012B03E010F8016B2D
:103AC00001F8016B5B1EF9D12B0705D40023521EB0
:103AD0000FD401F8013BFAE710F8013B02F10202B2
:103AE000A1EB030303E013F8015B01F8015B521E35
:103AF000F9D5A142D6D3002070BD00000FB4054B0C
:103B000010B503A9044A029800F018F810BC5DF83B
:103B100014FB0000631400085801002002E008C8EC
:103B2000121F08C1002AFAD170477047002001E037
:103B300001C1121F002AFBD1704700002DE9FF4F81
:103B40008DB004469B460F4600263BE1252801D058
:103B50000F9963E00025641C9E4AA8460121237842
:103B6000203B01FA03F0104202D00543641CF6E743
:103B700020782E2817D114F8010F45F004052A28C3
:103B80000ED06FF02F022078A0F1300109290AD859
:103B900008EB880102EB410100EB0108641CF2E72D
:103BA00057F8048B641C20786C280DD004DC4C285A
:103BB00012D06A2811D104E074280DD07A280CD1D3
:103BC0000AE045F4001507E0617845F4801581426C
:103BD00002D1641C05F58015641C94F800C0BCF18A
:103BE000690F4DD00CDCBCF1000F70D0BCF1580F48
:103BF0006FD0BCF1630F16D0BCF1640F0CD13FE065
:103C0000BCF1700F6AD0BCF1730F15D0BCF1750F09
:103C10005BD0BCF1780F5CD00F9960465A46904754
:103C200006F10106CDE001CF8DF8000000208DF8EF
:103C30000100E946012003E057F8049B4FF0FF30F4
:103C400069074FF0000501D40AE06D1C45450DDA07
:103C50008542FADB19F805100029F6D106E06D1C43
:103C60008542FCDB19F805100029F8D12E4404E048
:103C700019F8010B5A460F9990476D1EF8D2A0E033
:103C80000A200021CDE90801C5F3025002280AD01C
:103C900001CFC11700290DDA0023D0EB030063EB3D
:103CA00001012D2209E007F1070727F00707F7E8D0
:103CB0000201EFE72A0504D52B228DF828200122E6
:103CC00030E0EA072ED02022F7E70A2002E07DE06C
:103CD000FFE710200021CDE9080107E010200021B6
:103CE00045F00405CDE908014FF00808C5F302507E
:103CF000022821D001CF00214FF0000A2A0712D557
:103D0000BCF1700F1ED0DDE9083283F010031343BD
:103D100009D150EA010206D030228DF828208DF812
:103D200029C0022292462CA2BCF1580F00D02FA22B
:103D30000DF120090B920FE0FF1D27F00707F7E8B0
:103D40000201D9E74022B8E7DDE90823FFF742FE88
:103D50000B9B9B5C09F8013D50EA0102F4D1ADEBED
:103D6000090000F120000890680701D44FF0010815
:103D7000089A0020904501DDA8EB0200804600254E
:103D800006E00AA85A46405D0F999047761C6D1CC4
:103D90005545F6DB04E030205A460F999047761CD3
:103DA000B8F10001A8F10108F5DC05E019F8010BF4
:103DB0005A460F999047761C0899481E089000298A
:103DC000F4DC641C207800287FF4C0AE11B03046CB
:103DD000BDE8F08F092801003031323334353637F1
:103DE0003839414243444546000000003031323307
:103DF0003435363738396162636465660000000027
:103E0000706861736569642025642C20677265653C
:103E10006E466C61736854696D653A25642C20792F
:103E2000656C6C6F7754696D653A25642C20616C04
:103E30006C72656454696D653A25642C2070656404
:103E4000466C61736854696D653A25642C2063681B
:103E5000616E6E656C626974733A2523780D0A0091
:103E6000212121212043616E27742066696E642020
:103E7000706F736974696F6E20746F2074616B6505
:103E8000206F76657220746865206D61696E2063AD
:103E90006F6E74726F6C20626F61726420212121D9
:103EA000210D0A00697354616B654F7665723A257E
:103EB000642C2062617365616464723A25642C200D
:103EC000636F6E74726F6C426F6172644E6F3A25ED
:103ED000642C2072756E74696D653A25642C2073AC
:103EE0006368656D6569643A25640D0A0000000029
:103EF000103F0008000000205C0100009E3A00080E
:103F0000583F00085C010020140700002C3B00080B
:103F1000023F012940A9046321543F0303020386A1
:103F200086081B06011929084B6868080B21101028
:103F30005804440203040544140F140F23341223BD
:103F4000FFFF6D02040608A0290415060708097B77
:083F5000A24AAC791431000013
:04000005080000ED02
:00000001FF
